{
  "_format": "hh-sol-artifact-1",
  "contractName": "DEDEscrow",
  "sourceName": "src/DEDEscrow.sol",
  "abi": [
    {
      "inputs": [
        {
          "internalType": "address payable",
          "name": "beneficiary",
          "type": "address"
        }
      ],
      "stateMutability": "nonpayable",
      "type": "constructor"
    },
    {
      "inputs": [],
      "name": "Reentrancy",
      "type": "error"
    },
    {
      "inputs": [],
      "name": "RefundEscrowBeneficiaryCanOnlyWithdrawWhileClosed",
      "type": "error"
    },
    {
      "inputs": [],
      "name": "RefundEscrowCanOnlyCloseWhileActive",
      "type": "error"
    },
    {
      "inputs": [],
      "name": "RefundEscrowCanOnlyDepositWhileActive",
      "type": "error"
    },
    {
      "inputs": [],
      "name": "RefundEscrowCanOnlyEnableRefundsWhileActive",
      "type": "error"
    },
    {
      "inputs": [],
      "name": "RefundEscrowCanOnlyWithdrawWhileRefunding",
      "type": "error"
    },
    {
      "inputs": [],
      "name": "RefundEscrowNoFundsToWithdraw",
      "type": "error"
    },
    {
      "inputs": [],
      "name": "RefundEscrowTransferFailed",
      "type": "error"
    },
    {
      "inputs": [],
      "name": "RefundEscrowZeroAddress",
      "type": "error"
    },
    {
      "anonymous": false,
      "inputs": [
        {
          "indexed": true,
          "internalType": "address",
          "name": "beneficiary",
          "type": "address"
        },
        {
          "indexed": false,
          "internalType": "uint256",
          "name": "amount",
          "type": "uint256"
        }
      ],
      "name": "BeneficiaryWithdrawal",
      "type": "event"
    },
    {
      "anonymous": false,
      "inputs": [
        {
          "indexed": true,
          "internalType": "address",
          "name": "depositor",
          "type": "address"
        },
        {
          "indexed": true,
          "internalType": "address",
          "name": "refundee",
          "type": "address"
        },
        {
          "indexed": false,
          "internalType": "uint256",
          "name": "amount",
          "type": "uint256"
        }
      ],
      "name": "Deposit",
      "type": "event"
    },
    {
      "anonymous": false,
      "inputs": [],
      "name": "RefundsClosed",
      "type": "event"
    },
    {
      "anonymous": false,
      "inputs": [],
      "name": "RefundsEnabled",
      "type": "event"
    },
    {
      "anonymous": false,
      "inputs": [
        {
          "indexed": true,
          "internalType": "address",
          "name": "payee",
          "type": "address"
        },
        {
          "indexed": false,
          "internalType": "uint256",
          "name": "amount",
          "type": "uint256"
        }
      ],
      "name": "Withdrawal",
      "type": "event"
    },
    {
      "inputs": [],
      "name": "beneficiaryWithdraw",
      "outputs": [],
      "stateMutability": "nonpayable",
      "type": "function"
    },
    {
      "inputs": [],
      "name": "close",
      "outputs": [],
      "stateMutability": "nonpayable",
      "type": "function"
    },
    {
      "inputs": [
        {
          "internalType": "address",
          "name": "refundee",
          "type": "address"
        }
      ],
      "name": "deposit",
      "outputs": [],
      "stateMutability": "payable",
      "type": "function"
    },
    {
      "inputs": [
        {
          "internalType": "address",
          "name": "refundee",
          "type": "address"
        }
      ],
      "name": "depositsOf",
      "outputs": [
        {
          "internalType": "uint256",
          "name": "",
          "type": "uint256"
        }
      ],
      "stateMutability": "view",
      "type": "function"
    },
    {
      "inputs": [
        {
          "internalType": "address",
          "name": "token",
          "type": "address"
        },
        {
          "internalType": "address",
          "name": "to",
          "type": "address"
        },
        {
          "internalType": "uint256",
          "name": "amount",
          "type": "uint256"
        }
      ],
      "name": "emergencyWithdrawToken",
      "outputs": [],
      "stateMutability": "nonpayable",
      "type": "function"
    },
    {
      "inputs": [],
      "name": "enableRefunds",
      "outputs": [],
      "stateMutability": "nonpayable",
      "type": "function"
    },
    {
      "inputs": [],
      "name": "escrowBeneficiary",
      "outputs": [
        {
          "internalType": "address",
          "name": "",
          "type": "address"
        }
      ],
      "stateMutability": "view",
      "type": "function"
    },
    {
      "inputs": [],
      "name": "state",
      "outputs": [
        {
          "internalType": "enum DEDEscrow.State",
          "name": "",
          "type": "uint8"
        }
      ],
      "stateMutability": "view",
      "type": "function"
    },
    {
      "inputs": [],
      "name": "totalDeposits",
      "outputs": [
        {
          "internalType": "uint256",
          "name": "",
          "type": "uint256"
        }
      ],
      "stateMutability": "view",
      "type": "function"
    },
    {
      "inputs": [
        {
          "internalType": "address payable",
          "name": "payee",
          "type": "address"
        }
      ],
      "name": "withdraw",
      "outputs": [],
      "stateMutability": "nonpayable",
      "type": "function"
    },
    {
      "inputs": [],
      "name": "withdrawForCaller",
      "outputs": [],
      "stateMutability": "nonpayable",
      "type": "function"
    },
    {
      "inputs": [
        {
          "internalType": "address",
          "name": "payee",
          "type": "address"
        }
      ],
      "name": "withdrawalAllowed",
      "outputs": [
        {
          "internalType": "bool",
          "name": "",
          "type": "bool"
        }
      ],
      "stateMutability": "view",
      "type": "function"
    },
    {
      "stateMutability": "payable",
      "type": "receive"
    }
  ],
  "bytecode": "0x60a060405234801561001057600080fd5b50604051610ae2380380610ae283398101604081905261002f91610071565b6001600160a01b03811661005657604051637eef8be360e01b815260040160405180910390fd5b6001600160a01b03166080526000805460ff191690556100a1565b60006020828403121561008357600080fd5b81516001600160a01b038116811461009a57600080fd5b9392505050565b608051610a0a6100d860003960008181610127015281816102af015281816105bc0152818161068201526107140152610a0a6000f3fe6080604052600436106100ab5760003560e01c80638c376a68116100645780638c376a68146101fc5780638c52dc41146102115780639af6549a14610226578063c19d93fb1461023b578063e3a9db1a1461025b578063f340fa011461029157600080fd5b8063089580eb1461010d578063277327a51461015657806343d726d61461017857806351cff8d91461018d578063685ca194146101ad5780637d882097146101dd57600080fd5b366101085760405162461bcd60e51b815260206004820152602260248201527f557365206465706f73697428292066756e6374696f6e20746f2073656e6420456044820152610a8960f31b60648201526084015b60405180910390fd5b600080fd5b34801561011957600080fd5b506040516001600160a01b037f00000000000000000000000000000000000000000000000000000000000000001681526020015b60405180910390f35b34801561016257600080fd5b506101766101713660046108a4565b6102a4565b005b34801561018457600080fd5b50610176610318565b34801561019957600080fd5b506101766101a83660046108e5565b610384565b3480156101b957600080fd5b506101cd6101c83660046108e5565b610518565b604051901515815260200161014d565b3480156101e957600080fd5b506002545b60405190815260200161014d565b34801561020857600080fd5b5061017661053a565b34801561021d57600080fd5b50610176610545565b34801561023257600080fd5b506101766105b1565b34801561024757600080fd5b5060005460ff1660405161014d919061091f565b34801561026757600080fd5b506101ee6102763660046108e5565b6001600160a01b031660009081526001602052604090205490565b61017661029f3660046108e5565b610785565b336001600160a01b037f000000000000000000000000000000000000000000000000000000000000000016146102ec5760405162461bcd60e51b81526004016100ff90610947565b6001600160a01b03821661031357604051637eef8be360e01b815260040160405180910390fd5b505050565b6000805460ff16600281111561033057610330610909565b1461034e5760405163d5920adf60e01b815260040160405180910390fd5b6000805460ff191660021781556040517f088672c3a6e342f7cd94a65ba63b79df24a8973927b4d05d803c44bbf787d12f9190a1565b3068929eee149b4bd2126854036103a35763ab143c066000526004601cfd5b3068929eee149b4bd2126855600160005460ff1660028111156103c8576103c8610909565b146103e65760405163482841d160e01b815260040160405180910390fd5b6001600160a01b038116600090815260016020526040812054908190036104205760405163181ac37160e11b815260040160405180910390fd5b6001600160a01b03821660009081526001602052604081208190556002805483929061044d9084906109a8565b90915550506040516000906001600160a01b0384169083908381818185875af1925050503d806000811461049d576040519150601f19603f3d011682016040523d82523d6000602084013e6104a2565b606091505b50509050806104c457604051630fd9e7f560e21b815260040160405180910390fd5b826001600160a01b03167f7fcf532c15f0a6db0bd6d0e038bea71d30d808c7d98cb3bf7268a95bf5081b65836040516104ff91815260200190565b60405180910390a250503868929eee149b4bd212685550565b6000600160005460ff16600281111561053357610533610909565b1492915050565b61054333610384565b565b6000805460ff16600281111561055d5761055d610909565b1461057b5760405163f926a08760e01b815260040160405180910390fd5b6000805460ff191660011781556040517f599d8e5a83cffb867d051598c4d70e805d59802d8081c1c7d6dffc5b6aca2b899190a1565b336001600160a01b037f000000000000000000000000000000000000000000000000000000000000000016146105f95760405162461bcd60e51b81526004016100ff90610947565b3068929eee149b4bd2126854036106185763ab143c066000526004601cfd5b3068929eee149b4bd2126855600260005460ff16600281111561063d5761063d610909565b1461065b5760405163605fd88360e01b815260040160405180910390fd5b47600081900361067e5760405163181ac37160e11b815260040160405180910390fd5b60007f00000000000000000000000000000000000000000000000000000000000000006001600160a01b03168260405160006040518083038185875af1925050503d80600081146106eb576040519150601f19603f3d011682016040523d82523d6000602084013e6106f0565b606091505b505090508061071257604051630fd9e7f560e21b815260040160405180910390fd5b7f00000000000000000000000000000000000000000000000000000000000000006001600160a01b03167fd00df452345191b30a1d0c9f107ee92a95ddb17879f884f4ee4cfb650a5f3d768360405161076d91815260200190565b60405180910390a250503868929eee149b4bd2126855565b6000805460ff16600281111561079d5761079d610909565b146107bb57604051636c84f9f560e11b815260040160405180910390fd5b6001600160a01b0381166107e257604051637eef8be360e01b815260040160405180910390fd5b346000036108035760405163181ac37160e11b815260040160405180910390fd5b6001600160a01b0381166000908152600160205260408120805434929061082b9084906109c1565b92505081905550346002600082825461084491906109c1565b90915550506040513481526001600160a01b0382169033907f5548c837ab068cf56a2c2479df0882a4922fd203edb7517321831d95078c5f629060200160405180910390a350565b6001600160a01b03811681146108a157600080fd5b50565b6000806000606084860312156108b957600080fd5b83356108c48161088c565b925060208401356108d48161088c565b929592945050506040919091013590565b6000602082840312156108f757600080fd5b81356109028161088c565b9392505050565b634e487b7160e01b600052602160045260246000fd5b602081016003831061094157634e487b7160e01b600052602160045260246000fd5b91905290565b6020808252602b908201527f4f6e6c79207468652062656e65666963696172792063616e2063616c6c20746860408201526a34b990333ab731ba34b7b760a91b606082015260800190565b634e487b7160e01b600052601160045260246000fd5b818103818111156109bb576109bb610992565b92915050565b808201808211156109bb576109bb61099256fea2646970667358221220484b47c1403e91f99e19c227a3d266da6c661d8996fb8922cc3f533679f60fbf64736f6c63430008140033",
  "linkReferences": {},
  "deployedLinkReferences": {}
}