{
  "_format": "hh-sol-artifact-1",
  "contractName": "DEDIndex",
  "sourceName": "src/DEDIndex.sol",
  "abi": [
    {
      "inputs": [],
      "stateMutability": "nonpayable",
      "type": "constructor"
    },
    {
      "inputs": [],
      "name": "EmptyObjectives",
      "type": "error"
    },
    {
      "inputs": [],
      "name": "EmptySubject",
      "type": "error"
    },
    {
      "inputs": [],
      "name": "EmptyTopic",
      "type": "error"
    },
    {
      "inputs": [],
      "name": "InvalidPostAmount",
      "type": "error"
    },
    {
      "inputs": [],
      "name": "ListingNotFound",
      "type": "error"
    },
    {
      "inputs": [],
      "name": "ProfileAlreadyExists",
      "type": "error"
    },
    {
      "anonymous": false,
      "inputs": [
        {
          "indexed": true,
          "internalType": "address",
          "name": "poster",
          "type": "address"
        },
        {
          "indexed": false,
          "internalType": "address",
          "name": "listingAddress",
          "type": "address"
        }
      ],
      "name": "ListingRemoved",
      "type": "event"
    },
    {
      "anonymous": false,
      "inputs": [
        {
          "indexed": true,
          "internalType": "address",
          "name": "poster",
          "type": "address"
        },
        {
          "indexed": true,
          "internalType": "string",
          "name": "subject",
          "type": "string"
        },
        {
          "indexed": false,
          "internalType": "string",
          "name": "topic",
          "type": "string"
        },
        {
          "indexed": false,
          "internalType": "string",
          "name": "objectives",
          "type": "string"
        },
        {
          "indexed": true,
          "internalType": "uint256",
          "name": "postAmount",
          "type": "uint256"
        },
        {
          "indexed": false,
          "internalType": "address",
          "name": "listingAddress",
          "type": "address"
        }
      ],
      "name": "ListingSubmitted",
      "type": "event"
    },
    {
      "anonymous": false,
      "inputs": [
        {
          "indexed": true,
          "internalType": "address",
          "name": "user",
          "type": "address"
        },
        {
          "indexed": false,
          "internalType": "address",
          "name": "profileAddress",
          "type": "address"
        }
      ],
      "name": "ProfileCreated",
      "type": "event"
    },
    {
      "inputs": [
        {
          "internalType": "address",
          "name": "user",
          "type": "address"
        }
      ],
      "name": "createProfileForUser",
      "outputs": [],
      "stateMutability": "nonpayable",
      "type": "function"
    },
    {
      "inputs": [],
      "name": "getAllListingCreators",
      "outputs": [
        {
          "internalType": "address[]",
          "name": "",
          "type": "address[]"
        }
      ],
      "stateMutability": "view",
      "type": "function"
    },
    {
      "inputs": [
        {
          "internalType": "address",
          "name": "user",
          "type": "address"
        },
        {
          "internalType": "uint256",
          "name": "index",
          "type": "uint256"
        }
      ],
      "name": "getListingByIndex",
      "outputs": [
        {
          "internalType": "contract DEDListing",
          "name": "",
          "type": "address"
        }
      ],
      "stateMutability": "view",
      "type": "function"
    },
    {
      "inputs": [
        {
          "internalType": "address",
          "name": "user",
          "type": "address"
        }
      ],
      "name": "getListingCount",
      "outputs": [
        {
          "internalType": "uint256",
          "name": "",
          "type": "uint256"
        }
      ],
      "stateMutability": "view",
      "type": "function"
    },
    {
      "inputs": [],
      "name": "getListingCreatorsCount",
      "outputs": [
        {
          "internalType": "uint256",
          "name": "",
          "type": "uint256"
        }
      ],
      "stateMutability": "view",
      "type": "function"
    },
    {
      "inputs": [
        {
          "internalType": "address",
          "name": "user",
          "type": "address"
        }
      ],
      "name": "getListings",
      "outputs": [
        {
          "internalType": "contract DEDListing[]",
          "name": "list",
          "type": "address[]"
        }
      ],
      "stateMutability": "view",
      "type": "function"
    },
    {
      "inputs": [
        {
          "internalType": "address",
          "name": "",
          "type": "address"
        }
      ],
      "name": "hasProfile",
      "outputs": [
        {
          "internalType": "bool",
          "name": "",
          "type": "bool"
        }
      ],
      "stateMutability": "view",
      "type": "function"
    },
    {
      "inputs": [
        {
          "internalType": "address",
          "name": "",
          "type": "address"
        }
      ],
      "name": "isListingCreator",
      "outputs": [
        {
          "internalType": "bool",
          "name": "",
          "type": "bool"
        }
      ],
      "stateMutability": "view",
      "type": "function"
    },
    {
      "inputs": [
        {
          "internalType": "uint256",
          "name": "",
          "type": "uint256"
        }
      ],
      "name": "listingCreators",
      "outputs": [
        {
          "internalType": "address",
          "name": "",
          "type": "address"
        }
      ],
      "stateMutability": "view",
      "type": "function"
    },
    {
      "inputs": [
        {
          "internalType": "address",
          "name": "",
          "type": "address"
        },
        {
          "internalType": "uint256",
          "name": "",
          "type": "uint256"
        }
      ],
      "name": "listings",
      "outputs": [
        {
          "internalType": "contract DEDListing",
          "name": "",
          "type": "address"
        }
      ],
      "stateMutability": "view",
      "type": "function"
    },
    {
      "inputs": [],
      "name": "owner",
      "outputs": [
        {
          "internalType": "address",
          "name": "",
          "type": "address"
        }
      ],
      "stateMutability": "view",
      "type": "function"
    },
    {
      "inputs": [
        {
          "internalType": "address",
          "name": "",
          "type": "address"
        }
      ],
      "name": "profiles",
      "outputs": [
        {
          "internalType": "contract DEDProfile",
          "name": "",
          "type": "address"
        }
      ],
      "stateMutability": "view",
      "type": "function"
    },
    {
      "inputs": [
        {
          "internalType": "uint256",
          "name": "listingIndex",
          "type": "uint256"
        }
      ],
      "name": "removeListing",
      "outputs": [],
      "stateMutability": "nonpayable",
      "type": "function"
    },
    {
      "inputs": [
        {
          "internalType": "string",
          "name": "_subject",
          "type": "string"
        },
        {
          "internalType": "string",
          "name": "_topic",
          "type": "string"
        },
        {
          "internalType": "string",
          "name": "_objectives",
          "type": "string"
        },
        {
          "internalType": "uint256",
          "name": "_postAmount",
          "type": "uint256"
        }
      ],
      "name": "submitListing",
      "outputs": [
        {
          "internalType": "contract DEDListing",
          "name": "newListing",
          "type": "address"
        }
      ],
      "stateMutability": "nonpayable",
      "type": "function"
    }
  ],
  "bytecode": "0x60a060405234801561001057600080fd5b50336080526080516157c8610037600039600081816101d8015261078201526157c86000f3fe60806040523480156200001157600080fd5b5060043610620000fc5760003560e01c80638da5cb5b1162000097578063bbe15627116200006e578063bbe156271462000248578063cde8cd6e1462000274578063e7fe73ba146200029a578063fbb4c51c14620002a457600080fd5b80638da5cb5b14620001d2578063a787c80b14620001fa578063abe046a5146200023157600080fd5b8063442b92c011620000d8578063442b92c0146200015f578063479ad4c3146200018b57806376198ccd14620001a45780637b7f163014620001bb57600080fd5b806207df30146200010157806321794a981462000135578063285698491462000148575b600080fd5b620001186200011236600462000adc565b620002ca565b6040516001600160a01b0390911681526020015b60405180910390f35b6002545b6040519081526020016200012c565b620001186200015936600462000adc565b62000303565b620001396200017036600462000b09565b6001600160a01b031660009081526020819052604090205490565b620001a26200019c36600462000b2e565b620003b3565b005b62000118620001b536600462000b2e565b62000567565b62000118620001cc36600462000bf3565b62000592565b620001187f000000000000000000000000000000000000000000000000000000000000000081565b620002206200020b36600462000b09565b60046020526000908152604090205460ff1681565b60405190151581526020016200012c565b620001a26200024236600462000b09565b62000777565b620001186200025936600462000b09565b6001602052600090815260409020546001600160a01b031681565b6200028b6200028536600462000b09565b62000915565b6040516200012c919062000c8d565b6200028b6200098b565b62000220620002b536600462000b09565b60036020526000908152604090205460ff1681565b60006020528160005260406000208181548110620002e757600080fd5b6000918252602090912001546001600160a01b03169150829050565b6001600160a01b0382166000908152602081905260408120548210620003685760405162461bcd60e51b8152602060048201526015602482015274092dcecc2d8d2c840d8d2e6e8d2dcce40d2dcc8caf605b1b60448201526064015b60405180910390fd5b6001600160a01b038316600090815260208190526040902080548390811062000395576200039562000cdc565b6000918252602090912001546001600160a01b031690505b92915050565b3360009081526020819052604090205481106200040b5760405162461bcd60e51b8152602060048201526015602482015274092dcecc2d8d2c840d8d2e6e8d2dcce40d2dcc8caf605b1b60448201526064016200035f565b3360009081526020819052604081208054839081106200042f576200042f62000cdc565b600091825260208083209091015433835290829052604090912080546001600160a01b03909216925090620004679060019062000cf2565b815481106200047a576200047a62000cdc565b600091825260208083209091015433835290829052604090912080546001600160a01b039092169184908110620004b557620004b562000cdc565b600091825260208083209190910180546001600160a01b0319166001600160a01b0394909416939093179092553381529081905260409020805480620004ff57620004ff62000d14565b6000828152602090819020600019908301810180546001600160a01b03191690559091019091556040516001600160a01b038316815233917f09594682036f69e047655891e421ce79d92053b3a6a3f4a324478f7d4c57797291015b60405180910390a25050565b600281815481106200057857600080fd5b6000918252602090912001546001600160a01b0316905081565b60008451600003620005b757604051632592a81560e11b815260040160405180910390fd5b8351600003620005da57604051632bad17d360e01b815260040160405180910390fd5b8251600003620005fd5760405163ac9b8c4760e01b815260040160405180910390fd5b816000036200061f576040516394736abd60e01b815260040160405180910390fd5b84848484604051620006319062000aa3565b62000640949392919062000d7e565b604051809103906000f0801580156200065d573d6000803e3d6000fd5b503360008181526020818152604080832080546001810182559084528284200180546001600160a01b0319166001600160a01b03871617905592825260039052205490915060ff1662000705576002805460018181019092557f405787fa12a823e0f2b7631cc41b3ba8828b3321ca811111fa75cd3aa3bb5ace0180546001600160a01b031916339081179091556000908152600360205260409020805460ff191690911790555b6200070f620009ef565b818560405162000720919062000dcf565b6040518091039020336001600160a01b03167fab54c3707cd332181e74526779705fbcbc06f93164ac6906abf4a00e6cf8cd24878786604051620007679392919062000ded565b60405180910390a4949350505050565b336001600160a01b037f00000000000000000000000000000000000000000000000000000000000000001614620007fb5760405162461bcd60e51b815260206004820152602160248201527f4f6e6c79206f776e65722063616e2063616c6c20746869732066756e6374696f6044820152603760f91b60648201526084016200035f565b6001600160a01b0381166200084a5760405162461bcd60e51b8152602060048201526014602482015273496e76616c69642075736572206164647265737360601b60448201526064016200035f565b6001600160a01b03818116600090815260016020526040902054161562000884576040516337450d8560e11b815260040160405180910390fd5b6000604051620008949062000ab1565b604051809103906000f080158015620008b1573d6000803e3d6000fd5b506001600160a01b0383811660008181526001602090815260409182902080546001600160a01b03191694861694851790559051928352929350917f0e3805ab5ed81d70cc14ca89a9d933b5cb074fe2cd9a0c48c3c4a6f404304bbc91016200055b565b6001600160a01b038116600090815260208181526040918290208054835181840281018401909452808452606093928301828280156200097f57602002820191906000526020600020905b81546001600160a01b0316815260019091019060200180831162000960575b50505050509050919050565b60606002805480602002602001604051908101604052809291908181526020018280548015620009e557602002820191906000526020600020905b81546001600160a01b03168152600190910190602001808311620009c6575b5050505050905090565b326000908152600160205260409020546001600160a01b031662000aa157600060405162000a1d9062000ab1565b604051809103906000f08015801562000a3a573d6000803e3d6000fd5b503260008181526001602090815260409182902080546001600160a01b0319166001600160a01b038616908117909155915191825292935090917f0e3805ab5ed81d70cc14ca89a9d933b5cb074fe2cd9a0c48c3c4a6f404304bbc910160405180910390a2505b565b6140ce8062000e3083390190565b6108958062004efe83390190565b80356001600160a01b038116811462000ad757600080fd5b919050565b6000806040838503121562000af057600080fd5b62000afb8362000abf565b946020939093013593505050565b60006020828403121562000b1c57600080fd5b62000b278262000abf565b9392505050565b60006020828403121562000b4157600080fd5b5035919050565b634e487b7160e01b600052604160045260246000fd5b600082601f83011262000b7057600080fd5b813567ffffffffffffffff8082111562000b8e5762000b8e62000b48565b604051601f8301601f19908116603f0116810190828211818310171562000bb95762000bb962000b48565b8160405283815286602085880101111562000bd357600080fd5b836020870160208301376000602085830101528094505050505092915050565b6000806000806080858703121562000c0a57600080fd5b843567ffffffffffffffff8082111562000c2357600080fd5b62000c318883890162000b5e565b9550602087013591508082111562000c4857600080fd5b62000c568883890162000b5e565b9450604087013591508082111562000c6d57600080fd5b5062000c7c8782880162000b5e565b949793965093946060013593505050565b6020808252825182820181905260009190848201906040850190845b8181101562000cd05783516001600160a01b03168352928401929184019160010162000ca9565b50909695505050505050565b634e487b7160e01b600052603260045260246000fd5b81810381811115620003ad57634e487b7160e01b600052601160045260246000fd5b634e487b7160e01b600052603160045260246000fd5b60005b8381101562000d4757818101518382015260200162000d2d565b50506000910152565b6000815180845262000d6a81602086016020860162000d2a565b601f01601f19169290920160200192915050565b60808152600062000d93608083018762000d50565b828103602084015262000da7818762000d50565b9050828103604084015262000dbd818662000d50565b91505082606083015295945050505050565b6000825162000de381846020870162000d2a565b9190910192915050565b60608152600062000e02606083018662000d50565b828103602084015262000e16818662000d50565b91505060018060a01b038316604083015294935050505056fe60a06040526000805460ff191690553480156200001b57600080fd5b50604051620040ce380380620040ce8339810160408190526200003e91620001d8565b8351600003620000615760405163ecd7b0d160e01b815260040160405180910390fd5b8251600003620000845760405163ecd7b0d160e01b815260040160405180910390fd5b8151600003620000a75760405163ecd7b0d160e01b815260040160405180910390fd5b80600003620000c95760405163fe9ba5cd60e01b815260040160405180910390fd5b6002620000d7858262000300565b506001620000e6848262000300565b506003620000f5838262000300565b5060045550506000805460ff191660011790555033608052620003cc565b634e487b7160e01b600052604160045260246000fd5b600082601f8301126200013b57600080fd5b81516001600160401b038082111562000158576200015862000113565b604051601f8301601f19908116603f0116810190828211818310171562000183576200018362000113565b81604052838152602092508683858801011115620001a057600080fd5b600091505b83821015620001c45785820183015181830184015290820190620001a5565b600093810190920192909252949350505050565b60008060008060808587031215620001ef57600080fd5b84516001600160401b03808211156200020757600080fd5b620002158883890162000129565b955060208701519150808211156200022c57600080fd5b6200023a8883890162000129565b945060408701519150808211156200025157600080fd5b50620002608782880162000129565b606096909601519497939650505050565b600181811c908216806200028657607f821691505b602082108103620002a757634e487b7160e01b600052602260045260246000fd5b50919050565b601f821115620002fb57600081815260208120601f850160051c81016020861015620002d65750805b601f850160051c820191505b81811015620002f757828155600101620002e2565b5050505b505050565b81516001600160401b038111156200031c576200031c62000113565b62000334816200032d845462000271565b84620002ad565b602080601f8311600181146200036c5760008415620003535750858301515b600019600386901b1c1916600185901b178555620002f7565b600085815260208120601f198616915b828110156200039d578886015182559484019460019091019084016200037c565b5085821015620003bc5787850151600019600388901b60f8161c191681555b5050505050600190811b01905550565b608051613ca7620004276000396000818161050c0152818161076d01528181610b1901528181610d6a01528181610ec2015281816113e6015281816114a201528181611696015281816119b30152611b250152613ca76000f3fe608060405260043610620001ff5760003560e01c806381929b9c1162000117578063b1bf116511620000a1578063e581f9ee116200006c578063e581f9ee146200061b578063ea906e571462000633578063ef1aa36e1462000667578063f4b62bd314620006b257600080fd5b8063b1bf11651462000591578063bf63a57714620005b6578063c19d93fb14620005ce578063e2fdcc1714620005f957600080fd5b80638da5cb5b11620000e25780638da5cb5b14620004f8578063969e2038146200052e57806398564c4f14620005625780639b8de628146200056c57600080fd5b806381929b9c146200045757806382f7d392146200048b578063840b4f2314620004c85780638cd9681414620004e057600080fd5b80635575713711620001995780637022b58e11620001645780637022b58e14620003ea578063757a554314620004025780637a38fa56146200041a5780637d882097146200043f57600080fd5b806355757137146200031957806361cbadc3146200035457806365aaebb2146200037c5780636e5cc4a314620003ad57600080fd5b8063310c8b5411620001da578063310c8b54146200029d5780633ae2e7bd14620002c45780633f775f1614620002dc5780634be91944146200030157600080fd5b80630a59a98c14620002045780631a8212fb14620002345780632d627661146200025d575b600080fd5b3480156200021157600080fd5b506200021c620006ca565b6040516200022b9190620020bf565b60405180910390f35b3480156200024157600080fd5b506200024c62000760565b60405190151581526020016200022b565b3480156200026a57600080fd5b506200028e6200027c3660046200212c565b60076020526000908152604090205481565b6040519081526020016200022b565b348015620002aa57600080fd5b50620002c2620002bc36600462002151565b62000b0e565b005b348015620002d157600080fd5b506200028e600b5481565b348015620002e957600080fd5b50620002c2620002fb3660046200212c565b62000d5f565b3480156200030e57600080fd5b50620002c262000eb7565b3480156200032657600080fd5b50600f546200033b906001600160a01b031681565b6040516001600160a01b0390911681526020016200022b565b3480156200036157600080fd5b506200036c6200118a565b6040516200022b9291906200217e565b3480156200038957600080fd5b506200028e6200039b3660046200212c565b600c6020526000908152604090205481565b348015620003ba57600080fd5b506200024c620003cc3660046200212c565b6001600160a01b03166000908152600a602052604090205460ff1690565b348015620003f757600080fd5b50620002c2620013db565b3480156200040f57600080fd5b50620002c262001497565b3480156200042757600080fd5b50620002c2620004393660046200212c565b6200168b565b3480156200044c57600080fd5b506200028e600d5481565b3480156200046457600080fd5b506200024c620004763660046200212c565b60086020526000908152604090205460ff1681565b3480156200049857600080fd5b506200024c620004aa3660046200212c565b6001600160a01b031660009081526005602052604090205460ff1690565b348015620004d557600080fd5b506200021c620017b7565b348015620004ed57600080fd5b506200028e60045481565b3480156200050557600080fd5b506200033b7f000000000000000000000000000000000000000000000000000000000000000081565b3480156200053b57600080fd5b506200024c6200054d3660046200212c565b600a6020526000908152604090205460ff1681565b620002c2620017c6565b3480156200057957600080fd5b50620002c26200058b366004620022b1565b620019a8565b3480156200059e57600080fd5b50620002c2620005b03660046200212c565b62001b1a565b348015620005c357600080fd5b506200021c62001c36565b348015620005db57600080fd5b50600054620005ea9060ff1681565b6040516200022b919062002361565b3480156200060657600080fd5b50600e546200033b906001600160a01b031681565b3480156200062857600080fd5b506200028e60065481565b3480156200064057600080fd5b506200024c620006523660046200212c565b60056020526000908152604090205460ff1681565b3480156200067457600080fd5b506200068c620006863660046200238a565b62001c45565b604080516001600160a01b0390941684526020840192909252908201526060016200022b565b348015620006bf57600080fd5b506200021c62001c83565b60028054620006d990620023a4565b80601f01602080910402602001604051908101604052809291908181526020018280546200070790620023a4565b8015620007585780601f106200072c5761010080835404028352916020019162000758565b820191906000526020600020905b8154815290600101906020018083116200073a57829003601f168201915b505050505081565b6000336001600160a01b037f00000000000000000000000000000000000000000000000000000000000000001614620007b65760405162461bcd60e51b8152600401620007ad90620023e0565b60405180910390fd5b600160005460ff166006811115620007d257620007d26200234b565b14620007f157604051635502a78160e11b815260040160405180910390fd5b3068929eee149b4bd212685403620008115763ab143c066000526004601cfd5b3068929eee149b4bd2126855600954600003620008415760405163b949d85d60e01b815260040160405180910390fd5b60095460009067ffffffffffffffff81111562000862576200086262002206565b6040519080825280602002602001820160405280156200088c578160200160208202803683370190505b5060095490915060009067ffffffffffffffff811115620008b157620008b162002206565b604051908082528060200260200182016040528015620008db578160200160208202803683370190505b50905060005b60095481101562000a085760006009828154811062000904576200090462002421565b6000918252602080832060408051606081018252600390940290910180546001600160a01b031680855260018201548585015260029091015484830152845260089091529091205490915060ff1615620009f25780516001600160a01b03166000908152600a60205260409020805460ff191660011790558051845185908490811062000995576200099562002421565b60200260200101906001600160a01b031690816001600160a01b0316815250508060200151838381518110620009cf57620009cf62002421565b6020908102919091010152600b8054906000620009ec836200244d565b91905055505b5080620009ff816200244d565b915050620008e1565b50818160405162000a1990620020a3565b62000a269291906200217e565b604051809103906000f08015801562000a43573d6000803e3d6000fd5b50600f80546001600160a01b0319166001600160a01b03929092169182179055604051600090829062000a7690620020b1565b6001600160a01b039091168152602001604051809103906000f08015801562000aa3573d6000803e3d6000fd5b50600e80546001600160a01b0383166001600160a01b03199091161790556000805460ff191660021781556040519192507f058e9c0f45c10f9bb7f7f3f7b4543198fe3ca44486b59cf3a97e00218f742b8f91a160019450505050503868929eee149b4bd212685590565b336001600160a01b037f0000000000000000000000000000000000000000000000000000000000000000161462000b595760405162461bcd60e51b8152600401620007ad90620023e0565b600160005460ff16600681111562000b755762000b756200234b565b1462000b9457604051635502a78160e11b815260040160405180910390fd5b6001600160a01b03821662000bbc57604051631f62991d60e31b815260040160405180910390fd5b6001600160a01b03821660009081526008602052604090205460ff161562000bf757604051630eb5b69760e41b815260040160405180910390fd5b8060000362000c495760405162461bcd60e51b815260206004820152601d60248201527f536861726573206d7573742062652067726561746572207468616e20300000006044820152606401620007ad565b60098054604080516060810182526001600160a01b03868116808352602080840188815284860187815260018089018a556000998a5286517f6e1540171b6c0c960b71a7020d9f60077f6af931a8bbf590da0223dacf75c7af60038b0290810180546001600160a01b031916929098169190911790965591517f6e1540171b6c0c960b71a7020d9f60077f6af931a8bbf590da0223dacf75c7b0860155517f6e1540171b6c0c960b71a7020d9f60077f6af931a8bbf590da0223dacf75c7b1909401939093558187526007815284872086905560089052838620805460ff19169092179091559151929390927f29731592ee854d980200b3493c7396572a3edbbcf99d7b3c9203c351d2914bf09190a250505050565b336001600160a01b037f0000000000000000000000000000000000000000000000000000000000000000161462000daa5760405162461bcd60e51b8152600401620007ad90620023e0565b600160005460ff16600681111562000dc65762000dc66200234b565b1462000de557604051635502a78160e11b815260040160405180910390fd5b6001600160a01b03811662000e0d57604051631186b0dd60e21b815260040160405180910390fd5b6001600160a01b03811660009081526005602052604090205460ff161562000e485760405163f098194f60e01b815260040160405180910390fd5b6001600160a01b0381166000908152600560205260408120805460ff19166001179055600680549162000e7b836200244d565b90915550506040516001600160a01b038216907f7de4163fbbcee05669037d37efd601a44bb760f28d8003a41aca71da73e798de90600090a250565b336001600160a01b037f0000000000000000000000000000000000000000000000000000000000000000161462000f025760405162461bcd60e51b8152600401620007ad90620023e0565b600460005460ff16600681111562000f1e5762000f1e6200234b565b1462000f3d5760405163bf16ddd760e01b815260040160405180910390fd5b600e546001600160a01b03166000816001600160a01b031663c19d93fb6040518163ffffffff1660e01b8152600401602060405180830381865afa15801562000f8a573d6000803e3d6000fd5b505050506040513d601f19601f8201168201806040525081019062000fb0919062002469565b600281111562000fc45762000fc46200234b565b1462000fe357604051635ab234b560e11b815260040160405180910390fd5b6000805460ff1916600517815560408051638c52dc4160e01b815290516001600160a01b03841692638c52dc41926004808201939182900301818387803b1580156200102e57600080fd5b505af115801562001043573d6000803e3d6000fd5b5050505060005b6009548110156200115d576000600982815481106200106d576200106d62002421565b6000918252602080832060408051606081018252600390940290910180546001600160a01b031680855260018201548585015260029091015484830152845260059091529091205490915060ff168015620010e0575080516001600160a01b03166000908152600c602052604090205415155b15620011475780516040516351cff8d960e01b81526001600160a01b039182166004820152908416906351cff8d990602401600060405180830381600087803b1580156200112d57600080fd5b505af115801562001142573d6000803e3d6000fd5b505050505b508062001154816200244d565b9150506200104a565b506040517fc18867e1fee9ed2f91c9cbc09114a38fea5ff57872cd9171a3f551a360d048d990600090a150565b6060806000805b6009548110156200120e576008600060098381548110620011b657620011b662002421565b600091825260208083206003909202909101546001600160a01b0316835282019290925260400190205460ff1615620011f95781620011f5816200244d565b9250505b8062001205816200244d565b91505062001191565b508067ffffffffffffffff8111156200122b576200122b62002206565b60405190808252806020026020018201604052801562001255578160200160208202803683370190505b5092508067ffffffffffffffff81111562001274576200127462002206565b6040519080825280602002602001820160405280156200129e578160200160208202803683370190505b5091506000805b600954811015620013d4576008600060098381548110620012ca57620012ca62002421565b600091825260208083206003909202909101546001600160a01b0316835282019290925260400190205460ff1615620013bf576009818154811062001313576200131362002421565b600091825260209091206003909102015485516001600160a01b039091169086908490811062001347576200134762002421565b60200260200101906001600160a01b031690816001600160a01b031681525050600981815481106200137d576200137d62002421565b906000526020600020906003020160010154848381518110620013a457620013a462002421565b602090810291909101015281620013bb816200244d565b9250505b80620013cb816200244d565b915050620012a5565b5050509091565b336001600160a01b037f00000000000000000000000000000000000000000000000000000000000000001614620014265760405162461bcd60e51b8152600401620007ad90620023e0565b600360005460ff1660068111156200144257620014426200234b565b1462001461576040516358989ac760e01b815260040160405180910390fd5b6000805460ff191660041781556040517f9300516cbfa9c315617f06a75abffecd558932c6907dfd564c4c264132c6b74e9190a1565b336001600160a01b037f00000000000000000000000000000000000000000000000000000000000000001614620014e25760405162461bcd60e51b8152600401620007ad90620023e0565b600460005460ff166006811115620014fe57620014fe6200234b565b146200151d5760405163bf16ddd760e01b815260040160405180910390fd5b3068929eee149b4bd2126854036200153d5763ab143c066000526004601cfd5b3068929eee149b4bd2126855600e546001600160a01b03166002816001600160a01b031663c19d93fb6040518163ffffffff1660e01b8152600401602060405180830381865afa15801562001596573d6000803e3d6000fd5b505050506040513d601f19601f82011682018060405250810190620015bc919062002469565b6002811115620015d057620015d06200234b565b14620015ef57604051635ab234b560e11b815260040160405180910390fd5b6000805460ff1916600617815560408051634d7b2a4d60e11b815290516001600160a01b03841692639af6549a926004808201939182900301818387803b1580156200163a57600080fd5b505af11580156200164f573d6000803e3d6000fd5b50506040517fee9cca86ce471646598c6ad7a2d7315e8221486d1dd0a10177346a28ecd986fa925060009150a1503868929eee149b4bd2126855565b336001600160a01b037f00000000000000000000000000000000000000000000000000000000000000001614620016d65760405162461bcd60e51b8152600401620007ad90620023e0565b600160005460ff166006811115620016f257620016f26200234b565b146200171157604051635502a78160e11b815260040160405180910390fd5b6001600160a01b03811660009081526005602052604090205460ff166200174b576040516374b0a56960e01b815260040160405180910390fd5b6001600160a01b0381166000908152600560205260408120805460ff1916905560068054916200177b836200248c565b90915550506040516001600160a01b038216907f8086706ecdd3cdaacf5f35345b440a156ae8eca054eff541ef96e89fb8f98adb90600090a250565b60038054620006d990620023a4565b3360009081526005602052604090205460ff16620017f7576040516341b46a4160e11b815260040160405180910390fd5b600260005460ff1660068111156200181357620018136200234b565b14620018325760405163454dbfbb60e11b815260040160405180910390fd5b3068929eee149b4bd212685403620018525763ab143c066000526004601cfd5b3068929eee149b4bd212685534600003620018805760405163fe9ba5cd60e01b815260040160405180910390fd5b6004543414620018a35760405163fe9ba5cd60e01b815260040160405180910390fd5b600e5460405163f340fa0160e01b81523360048201526001600160a01b0390911690819063f340fa019034906024016000604051808303818588803b158015620018ec57600080fd5b505af115801562001901573d6000803e3d6000fd5b5050336000908152600c602052604081203490819055600d8054919550935090915062001930908490620024a6565b909155505060405134815233907f9936746a4565f9766fa768f88f56a7487c78780ac179562773d1c75c5269537e9060200160405180910390a26000600b546004546200197e9190620024c2565b905080600d541062001998576000805460ff191660031790555b50503868929eee149b4bd2126855565b336001600160a01b037f00000000000000000000000000000000000000000000000000000000000000001614620019f35760405162461bcd60e51b8152600401620007ad90620023e0565b600160005460ff16600681111562001a0f5762001a0f6200234b565b1462001a2e57604051635502a78160e11b815260040160405180910390fd5b835160000362001a515760405163ecd7b0d160e01b815260040160405180910390fd5b825160000362001a745760405163ecd7b0d160e01b815260040160405180910390fd5b815160000362001a975760405163ecd7b0d160e01b815260040160405180910390fd5b8060000362001ab95760405163fe9ba5cd60e01b815260040160405180910390fd5b600262001ac785826200252f565b50600162001ad684826200252f565b50600362001ae583826200252f565b5060048190556040517f579d1198506d9238b88e8ae90b599aa3b8e84aeca6151deb26d9adc89541f31790600090a150505050565b336001600160a01b037f0000000000000000000000000000000000000000000000000000000000000000161462001b655760405162461bcd60e51b8152600401620007ad90620023e0565b600160005460ff16600681111562001b815762001b816200234b565b1462001ba057604051635502a78160e11b815260040160405180910390fd5b6001600160a01b03811660009081526008602052604090205460ff1662001bda5760405163050cca1560e51b815260040160405180910390fd5b6001600160a01b03811660009081526007602052604090205462001bfe8162001ea6565b6040516001600160a01b038316907fe8ff6076690d754777b9220c1ee0319634fb43ee2bb8db47074698877e89572590600090a25050565b60018054620006d990620023a4565b6009818154811062001c5657600080fd5b60009182526020909120600390910201805460018201546002909201546001600160a01b03909116925083565b60606000805460ff16600681111562001ca05762001ca06200234b565b0362001cc8575060408051808201909152600781526610dc99585d195960ca1b602082015290565b600160005460ff16600681111562001ce45762001ce46200234b565b0362001d1a5750604080518082019091526015815274416363657074696e675061727469636970616e747360581b602082015290565b600260005460ff16600681111562001d365762001d366200234b565b0362001d67575060408051808201909152601081526f1058d8d95c1d1a5b99d1195c1bdcda5d60821b602082015290565b600360005460ff16600681111562001d835762001d836200234b565b0362001db3575060408051808201909152600f81526e4177616974696e67436f6e6669726d60881b602082015290565b600460005460ff16600681111562001dcf5762001dcf6200234b565b0362001dfa575060408051808201909152600a815269496e50726f677265737360b01b602082015290565b600560005460ff16600681111562001e165762001e166200234b565b0362001e3f57506040805180820190915260088152671499599d5b99195960c21b602082015290565b600660005460ff16600681111562001e5b5762001e5b6200234b565b0362001e84575060408051808201909152600881526714995b19585cd95960c21b602082015290565b506040805180820190915260078152662ab735b737bbb760c91b602082015290565b600954811062001eef5760405162461bcd60e51b8152602060048201526013602482015272496e646578206f7574206f6620626f756e647360681b6044820152606401620007ad565b6000600860006009848154811062001f0b5762001f0b62002421565b60009182526020808320600392909202909101546001600160a01b031683528201929092526040019020805460ff191691151591909117905560095462001f5590600190620025fc565b81146200205c576009805462001f6e90600190620025fc565b8154811062001f815762001f8162002421565b90600052602060002090600302016009828154811062001fa55762001fa562002421565b60009182526020909120825460039092020180546001600160a01b0319166001600160a01b0390921691909117815560018083015490820155600291820154910155600980548291908290811062002001576200200162002421565b90600052602060002090600302016002018190555080600760006009848154811062002031576200203162002421565b600091825260208083206003909202909101546001600160a01b031683528201929092526040019020555b600980548062002070576200207062002612565b60008281526020812060036000199093019283020180546001600160a01b03191681556001810182905560020155905550565b610b67806200262983390190565b610ae2806200319083390190565b600060208083528351808285015260005b81811015620020ee57858101830151858201604001528201620020d0565b506000604082860101526040601f19601f8301168501019250505092915050565b80356001600160a01b03811681146200212757600080fd5b919050565b6000602082840312156200213f57600080fd5b6200214a826200210f565b9392505050565b600080604083850312156200216557600080fd5b62002170836200210f565b946020939093013593505050565b604080825283519082018190526000906020906060840190828701845b82811015620021c25781516001600160a01b0316845292840192908401906001016200219b565b5050508381038285015284518082528583019183019060005b81811015620021f957835183529284019291840191600101620021db565b5090979650505050505050565b634e487b7160e01b600052604160045260246000fd5b600082601f8301126200222e57600080fd5b813567ffffffffffffffff808211156200224c576200224c62002206565b604051601f8301601f19908116603f0116810190828211818310171562002277576200227762002206565b816040528381528660208588010111156200229157600080fd5b836020870160208301376000602085830101528094505050505092915050565b60008060008060808587031215620022c857600080fd5b843567ffffffffffffffff80821115620022e157600080fd5b620022ef888389016200221c565b955060208701359150808211156200230657600080fd5b62002314888389016200221c565b945060408701359150808211156200232b57600080fd5b506200233a878288016200221c565b949793965093946060013593505050565b634e487b7160e01b600052602160045260246000fd5b60208101600783106200238457634e487b7160e01b600052602160045260246000fd5b91905290565b6000602082840312156200239d57600080fd5b5035919050565b600181811c90821680620023b957607f821691505b602082108103620023da57634e487b7160e01b600052602260045260246000fd5b50919050565b60208082526021908201527f4f6e6c79206f776e65722063616e2063616c6c20746869732066756e6374696f6040820152603760f91b606082015260800190565b634e487b7160e01b600052603260045260246000fd5b634e487b7160e01b600052601160045260246000fd5b60006001820162002462576200246262002437565b5060010190565b6000602082840312156200247c57600080fd5b8151600381106200214a57600080fd5b6000816200249e576200249e62002437565b506000190190565b80820180821115620024bc57620024bc62002437565b92915050565b8082028115828204841417620024bc57620024bc62002437565b601f8211156200252a57600081815260208120601f850160051c81016020861015620025055750805b601f850160051c820191505b81811015620025265782815560010162002511565b5050505b505050565b815167ffffffffffffffff8111156200254c576200254c62002206565b62002564816200255d8454620023a4565b84620024dc565b602080601f8311600181146200259c5760008415620025835750858301515b600019600386901b1c1916600185901b17855562002526565b600085815260208120601f198616915b82811015620025cd57888601518255948401946001909101908401620025ac565b5085821015620025ec5787850151600019600388901b60f8161c191681555b5050505050600190811b01905550565b81810381811115620024bc57620024bc62002437565b634e487b7160e01b600052603160045260246000fdfe60806040523480156200001157600080fd5b5060405162000b6738038062000b6783398101604081905262000034916200043c565b8051825114620000a65760405162461bcd60e51b815260206004820152603260248201527f5061796d656e7453706c69747465723a2070617965657320616e6420736861726044820152710cae640d8cadccee8d040dad2e6dac2e8c6d60731b60648201526084015b60405180910390fd5b6000825111620000f95760405162461bcd60e51b815260206004820152601a60248201527f5061796d656e7453706c69747465723a206e6f2070617965657300000000000060448201526064016200009d565b60005b82518110156200016557620001508382815181106200011f576200011f6200051a565b60200260200101518383815181106200013c576200013c6200051a565b60200260200101516200016e60201b60201c565b806200015c8162000546565b915050620000fc565b5050506200057e565b6001600160a01b038216620001db5760405162461bcd60e51b815260206004820152602c60248201527f5061796d656e7453706c69747465723a206163636f756e74206973207468652060448201526b7a65726f206164647265737360a01b60648201526084016200009d565b600081116200022d5760405162461bcd60e51b815260206004820152601d60248201527f5061796d656e7453706c69747465723a2073686172657320617265203000000060448201526064016200009d565b6001600160a01b03821660009081526002602052604090205415620002a95760405162461bcd60e51b815260206004820152602b60248201527f5061796d656e7453706c69747465723a206163636f756e7420616c726561647960448201526a206861732073686172657360a81b60648201526084016200009d565b60048054600181019091557f8a35acfbc15ff81a39ae7d344fd709f28e8600b4aa8c65c6b64bfe7fe36bd19b0180546001600160a01b0319166001600160a01b0384169081179091556000908152600260205260408120829055546200031190829062000562565b600055604080516001600160a01b0384168152602081018390527f40c340f65e17194d14ddddb073d3c9f888e3cb52b5aae0c6c7706b4fbc905fac910160405180910390a15050565b634e487b7160e01b600052604160045260246000fd5b604051601f8201601f191681016001600160401b03811182821017156200039b576200039b6200035a565b604052919050565b60006001600160401b03821115620003bf57620003bf6200035a565b5060051b60200190565b600082601f830112620003db57600080fd5b81516020620003f4620003ee83620003a3565b62000370565b82815260059290921b840181019181810190868411156200041457600080fd5b8286015b8481101562000431578051835291830191830162000418565b509695505050505050565b600080604083850312156200045057600080fd5b82516001600160401b03808211156200046857600080fd5b818501915085601f8301126200047d57600080fd5b8151602062000490620003ee83620003a3565b82815260059290921b84018101918181019089841115620004b057600080fd5b948201945b83861015620004e75785516001600160a01b0381168114620004d75760008081fd5b82529482019490820190620004b5565b918801519196509093505050808211156200050157600080fd5b506200051085828601620003c9565b9150509250929050565b634e487b7160e01b600052603260045260246000fd5b634e487b7160e01b600052601160045260246000fd5b6000600182016200055b576200055b62000530565b5060010190565b8082018082111562000578576200057862000530565b92915050565b6105d9806200058e6000396000f3fe6080604052600436106100735760003560e01c80638b83209b1161004e5780638b83209b146101125780639852595c1461014a578063ce7c2ac214610180578063e33b7de3146101b657600080fd5b8062dbe109146100b757806319165587146100db5780633a98ef39146100fd57600080fd5b366100b257604080513381523460208201527f6ef95f06320e7a25a04a175ca677b7052bdd97131872c2192525a629f51be770910160405180910390a1005b600080fd5b3480156100c357600080fd5b506004545b6040519081526020015b60405180910390f35b3480156100e757600080fd5b506100fb6100f63660046104d5565b6101cb565b005b34801561010957600080fd5b506000546100c8565b34801561011e57600080fd5b5061013261012d3660046104f9565b61044a565b6040516001600160a01b0390911681526020016100d2565b34801561015657600080fd5b506100c86101653660046104d5565b6001600160a01b031660009081526003602052604090205490565b34801561018c57600080fd5b506100c861019b3660046104d5565b6001600160a01b031660009081526002602052604090205490565b3480156101c257600080fd5b506001546100c8565b3068929eee149b4bd2126854036101ea5763ab143c066000526004601cfd5b3068929eee149b4bd21268556001600160a01b03811660009081526002602052604090205461026f5760405162461bcd60e51b815260206004820152602660248201527f5061796d656e7453706c69747465723a206163636f756e7420686173206e6f2060448201526573686172657360d01b60648201526084015b60405180910390fd5b60006001544761027f9190610528565b6001600160a01b038316600090815260036020526040812054919250906102a9908490849061047a565b90508060000361030f5760405162461bcd60e51b815260206004820152602b60248201527f5061796d656e7453706c69747465723a206163636f756e74206973206e6f742060448201526a191d59481c185e5b595b9d60aa1b6064820152608401610266565b6001600160a01b03831660009081526003602052604081208054839290610337908490610528565b9250508190555080600160008282546103509190610528565b90915550506040516000906001600160a01b0385169083908381818185875af1925050503d80600081146103a0576040519150601f19603f3d011682016040523d82523d6000602084013e6103a5565b606091505b50509050806103f65760405162461bcd60e51b815260206004820181905260248201527f5061796d656e7453706c69747465723a207472616e73666572206661696c65646044820152606401610266565b604080516001600160a01b0386168152602081018490527fdf20fd1e76bc69d672e4814fafb2c449bba3a5369d8359adf9e05e6fde87b056910160405180910390a15050503868929eee149b4bd212685550565b60006004828154811061045f5761045f610541565b6000918252602090912001546001600160a01b031692915050565b600080546001600160a01b0385168252600260205260408220548391906104a19086610557565b6104ab919061056e565b6104b59190610590565b949350505050565b6001600160a01b03811681146104d257600080fd5b50565b6000602082840312156104e757600080fd5b81356104f2816104bd565b9392505050565b60006020828403121561050b57600080fd5b5035919050565b634e487b7160e01b600052601160045260246000fd5b8082018082111561053b5761053b610512565b92915050565b634e487b7160e01b600052603260045260246000fd5b808202811582820484141761053b5761053b610512565b60008261058b57634e487b7160e01b600052601260045260246000fd5b500490565b8181038181111561053b5761053b61051256fea264697066735822122029b9aca0a19ebb8ac14e77e05e584bbce48e6bd4d984695b9e510e7abf565c4d64736f6c6343000814003360a060405234801561001057600080fd5b50604051610ae2380380610ae283398101604081905261002f91610071565b6001600160a01b03811661005657604051637eef8be360e01b815260040160405180910390fd5b6001600160a01b03166080526000805460ff191690556100a1565b60006020828403121561008357600080fd5b81516001600160a01b038116811461009a57600080fd5b9392505050565b608051610a0a6100d860003960008181610127015281816102af015281816105bc0152818161068201526107140152610a0a6000f3fe6080604052600436106100ab5760003560e01c80638c376a68116100645780638c376a68146101fc5780638c52dc41146102115780639af6549a14610226578063c19d93fb1461023b578063e3a9db1a1461025b578063f340fa011461029157600080fd5b8063089580eb1461010d578063277327a51461015657806343d726d61461017857806351cff8d91461018d578063685ca194146101ad5780637d882097146101dd57600080fd5b366101085760405162461bcd60e51b815260206004820152602260248201527f557365206465706f73697428292066756e6374696f6e20746f2073656e6420456044820152610a8960f31b60648201526084015b60405180910390fd5b600080fd5b34801561011957600080fd5b506040516001600160a01b037f00000000000000000000000000000000000000000000000000000000000000001681526020015b60405180910390f35b34801561016257600080fd5b506101766101713660046108a4565b6102a4565b005b34801561018457600080fd5b50610176610318565b34801561019957600080fd5b506101766101a83660046108e5565b610384565b3480156101b957600080fd5b506101cd6101c83660046108e5565b610518565b604051901515815260200161014d565b3480156101e957600080fd5b506002545b60405190815260200161014d565b34801561020857600080fd5b5061017661053a565b34801561021d57600080fd5b50610176610545565b34801561023257600080fd5b506101766105b1565b34801561024757600080fd5b5060005460ff1660405161014d919061091f565b34801561026757600080fd5b506101ee6102763660046108e5565b6001600160a01b031660009081526001602052604090205490565b61017661029f3660046108e5565b610785565b336001600160a01b037f000000000000000000000000000000000000000000000000000000000000000016146102ec5760405162461bcd60e51b81526004016100ff90610947565b6001600160a01b03821661031357604051637eef8be360e01b815260040160405180910390fd5b505050565b6000805460ff16600281111561033057610330610909565b1461034e5760405163d5920adf60e01b815260040160405180910390fd5b6000805460ff191660021781556040517f088672c3a6e342f7cd94a65ba63b79df24a8973927b4d05d803c44bbf787d12f9190a1565b3068929eee149b4bd2126854036103a35763ab143c066000526004601cfd5b3068929eee149b4bd2126855600160005460ff1660028111156103c8576103c8610909565b146103e65760405163482841d160e01b815260040160405180910390fd5b6001600160a01b038116600090815260016020526040812054908190036104205760405163181ac37160e11b815260040160405180910390fd5b6001600160a01b03821660009081526001602052604081208190556002805483929061044d9084906109a8565b90915550506040516000906001600160a01b0384169083908381818185875af1925050503d806000811461049d576040519150601f19603f3d011682016040523d82523d6000602084013e6104a2565b606091505b50509050806104c457604051630fd9e7f560e21b815260040160405180910390fd5b826001600160a01b03167f7fcf532c15f0a6db0bd6d0e038bea71d30d808c7d98cb3bf7268a95bf5081b65836040516104ff91815260200190565b60405180910390a250503868929eee149b4bd212685550565b6000600160005460ff16600281111561053357610533610909565b1492915050565b61054333610384565b565b6000805460ff16600281111561055d5761055d610909565b1461057b5760405163f926a08760e01b815260040160405180910390fd5b6000805460ff191660011781556040517f599d8e5a83cffb867d051598c4d70e805d59802d8081c1c7d6dffc5b6aca2b899190a1565b336001600160a01b037f000000000000000000000000000000000000000000000000000000000000000016146105f95760405162461bcd60e51b81526004016100ff90610947565b3068929eee149b4bd2126854036106185763ab143c066000526004601cfd5b3068929eee149b4bd2126855600260005460ff16600281111561063d5761063d610909565b1461065b5760405163605fd88360e01b815260040160405180910390fd5b47600081900361067e5760405163181ac37160e11b815260040160405180910390fd5b60007f00000000000000000000000000000000000000000000000000000000000000006001600160a01b03168260405160006040518083038185875af1925050503d80600081146106eb576040519150601f19603f3d011682016040523d82523d6000602084013e6106f0565b606091505b505090508061071257604051630fd9e7f560e21b815260040160405180910390fd5b7f00000000000000000000000000000000000000000000000000000000000000006001600160a01b03167fd00df452345191b30a1d0c9f107ee92a95ddb17879f884f4ee4cfb650a5f3d768360405161076d91815260200190565b60405180910390a250503868929eee149b4bd2126855565b6000805460ff16600281111561079d5761079d610909565b146107bb57604051636c84f9f560e11b815260040160405180910390fd5b6001600160a01b0381166107e257604051637eef8be360e01b815260040160405180910390fd5b346000036108035760405163181ac37160e11b815260040160405180910390fd5b6001600160a01b0381166000908152600160205260408120805434929061082b9084906109c1565b92505081905550346002600082825461084491906109c1565b90915550506040513481526001600160a01b0382169033907f5548c837ab068cf56a2c2479df0882a4922fd203edb7517321831d95078c5f629060200160405180910390a350565b6001600160a01b03811681146108a157600080fd5b50565b6000806000606084860312156108b957600080fd5b83356108c48161088c565b925060208401356108d48161088c565b929592945050506040919091013590565b6000602082840312156108f757600080fd5b81356109028161088c565b9392505050565b634e487b7160e01b600052602160045260246000fd5b602081016003831061094157634e487b7160e01b600052602160045260246000fd5b91905290565b6020808252602b908201527f4f6e6c79207468652062656e65666963696172792063616e2063616c6c20746860408201526a34b990333ab731ba34b7b760a91b606082015260800190565b634e487b7160e01b600052601160045260246000fd5b818103818111156109bb576109bb610992565b92915050565b808201808211156109bb576109bb61099256fea2646970667358221220484b47c1403e91f99e19c227a3d266da6c661d8996fb8922cc3f533679f60fbf64736f6c63430008140033a2646970667358221220d62708390e5a77d49a5c8fdfea9491784a0a89a4a59da7504d0602ba2fdbf96464736f6c6343000814003360a060405234801561001057600080fd5b503260808190526040517ff10ec97e920cde75887622583772c637595a40b1f7777c18e51ea36cd127475c90600090a260805161082d6100686000396000818160b9015281816101050152610254015261082d6000f3fe608060405234801561001057600080fd5b50600436106100575760003560e01c80633bafe3131461005c57806347d5a0911461007c5780634affb2601461009f578063e4128fb3146100b4578063f516b422146100f3575b600080fd5b6100646100fb565b60405161007393929190610521565b60405180910390f35b61008f61008a366004610602565b610247565b6040519015158152602001610073565b6100a7610440565b6040516100739190610666565b6100db7f000000000000000000000000000000000000000000000000000000000000000081565b6040516001600160a01b039091168152602001610073565b6100a76104ce565b60608060008060017f000000000000000000000000000000000000000000000000000000000000000082805461013090610680565b80601f016020809104026020016040519081016040528092919081815260200182805461015c90610680565b80156101a95780601f1061017e576101008083540402835291602001916101a9565b820191906000526020600020905b81548152906001019060200180831161018c57829003601f168201915b505050505092508180546101bc90610680565b80601f01602080910402602001604051908101604052809291908181526020018280546101e890610680565b80156102355780601f1061020a57610100808354040283529160200191610235565b820191906000526020600020905b81548152906001019060200180831161021857829003601f168201915b50505050509150925092509250909192565b6000336001600160a01b037f000000000000000000000000000000000000000000000000000000000000000016146102d85760405162461bcd60e51b815260206004820152602960248201527f4f6e6c792070726f66696c65206f776e65722063616e2063616c6c207468697360448201526810333ab731ba34b7b760b91b60648201526084015b60405180910390fd5b60008351116103295760405162461bcd60e51b815260206004820152601c60248201527f446973706c6179206e616d652063616e6e6f7420626520656d7074790000000060448201526064016102cf565b6032835111156103875760405162461bcd60e51b8152602060048201526024808201527f446973706c6179206e616d6520746f6f206c6f6e6720286d61782035302063686044820152636172732960e01b60648201526084016102cf565b6101f4825111156103da5760405162461bcd60e51b815260206004820152601c60248201527f42696f20746f6f206c6f6e6720286d617820353030206368617273290000000060448201526064016102cf565b60006103e68482610709565b5060016103f38382610709565b50336001600160a01b03167f6eb3a1c6a4675ba92d44e090515b1ceea358f26565d2854df0c99c3f5eaf9850848460405161042f9291906107c9565b60405180910390a250600192915050565b6000805461044d90610680565b80601f016020809104026020016040519081016040528092919081815260200182805461047990610680565b80156104c65780601f1061049b576101008083540402835291602001916104c6565b820191906000526020600020905b8154815290600101906020018083116104a957829003601f168201915b505050505081565b6001805461044d90610680565b6000815180845260005b81811015610501576020818501810151868301820152016104e5565b506000602082860101526020601f19601f83011685010191505092915050565b60608152600061053460608301866104db565b828103602084015261054681866104db565b91505060018060a01b0383166040830152949350505050565b634e487b7160e01b600052604160045260246000fd5b600082601f83011261058657600080fd5b813567ffffffffffffffff808211156105a1576105a161055f565b604051601f8301601f19908116603f011681019082821181831017156105c9576105c961055f565b816040528381528660208588010111156105e257600080fd5b836020870160208301376000602085830101528094505050505092915050565b6000806040838503121561061557600080fd5b823567ffffffffffffffff8082111561062d57600080fd5b61063986838701610575565b9350602085013591508082111561064f57600080fd5b5061065c85828601610575565b9150509250929050565b60208152600061067960208301846104db565b9392505050565b600181811c9082168061069457607f821691505b6020821081036106b457634e487b7160e01b600052602260045260246000fd5b50919050565b601f82111561070457600081815260208120601f850160051c810160208610156106e15750805b601f850160051c820191505b81811015610700578281556001016106ed565b5050505b505050565b815167ffffffffffffffff8111156107235761072361055f565b610737816107318454610680565b846106ba565b602080601f83116001811461076c57600084156107545750858301515b600019600386901b1c1916600185901b178555610700565b600085815260208120601f198616915b8281101561079b5788860151825594840194600190910190840161077c565b50858210156107b95787850151600019600388901b60f8161c191681555b5050505050600190811b01905550565b6040815260006107dc60408301856104db565b82810360208401526107ee81856104db565b9594505050505056fea2646970667358221220aa0c6b17bc5d9867a1f2c3d05e52c168f59b9e816f9dfc44631c47c0de6b190a64736f6c63430008140033a2646970667358221220912b001f95b30ad4e2b043235c4e8f35540aceedc1714d400834650a8e1466ac64736f6c63430008140033",
  "linkReferences": {},
  "deployedLinkReferences": {}
}