{
  "_format": "hh-sol-artifact-1",
  "contractName": "DEDListing",
  "sourceName": "src/DEDListing.sol",
  "abi": [
    {
      "inputs": [
        {
          "internalType": "string",
          "name": "_subject",
          "type": "string"
        },
        {
          "internalType": "string",
          "name": "_topic",
          "type": "string"
        },
        {
          "internalType": "string",
          "name": "_objectives",
          "type": "string"
        },
        {
          "internalType": "uint256",
          "name": "_postAmount",
          "type": "uint256"
        },
        {
          "internalType": "address",
          "name": "_creator",
          "type": "address"
        }
      ],
      "stateMutability": "nonpayable",
      "type": "constructor"
    },
    {
      "inputs": [],
      "name": "ConfirmationUnapplicableCurrently",
      "type": "error"
    },
    {
      "inputs": [],
      "name": "EducatorAlreadyAdded",
      "type": "error"
    },
    {
      "inputs": [],
      "name": "EducatorNotInList",
      "type": "error"
    },
    {
      "inputs": [],
      "name": "EmptyString",
      "type": "error"
    },
    {
      "inputs": [],
      "name": "EscrowAlreadyEstablished",
      "type": "error"
    },
    {
      "inputs": [],
      "name": "EscrowNotEstablished",
      "type": "error"
    },
    {
      "inputs": [],
      "name": "EscrowStateInvalid",
      "type": "error"
    },
    {
      "inputs": [],
      "name": "InsufficientDeposit",
      "type": "error"
    },
    {
      "inputs": [],
      "name": "InvalidDepositAmount",
      "type": "error"
    },
    {
      "inputs": [],
      "name": "InvalidEducatorAddress",
      "type": "error"
    },
    {
      "inputs": [],
      "name": "InvalidStudentAddress",
      "type": "error"
    },
    {
      "inputs": [],
      "name": "NoEducatorsAdded",
      "type": "error"
    },
    {
      "inputs": [],
      "name": "PaymentUnapplicableCurrently",
      "type": "error"
    },
    {
      "inputs": [],
      "name": "Reentrancy",
      "type": "error"
    },
    {
      "inputs": [],
      "name": "RosterChangesUnapplicableCurrently",
      "type": "error"
    },
    {
      "inputs": [],
      "name": "SenderNotEducator",
      "type": "error"
    },
    {
      "inputs": [],
      "name": "SenderNotStudent",
      "type": "error"
    },
    {
      "inputs": [],
      "name": "SessionTerminationUnapplicableCurrently",
      "type": "error"
    },
    {
      "inputs": [],
      "name": "StudentAlreadyAllowed",
      "type": "error"
    },
    {
      "inputs": [],
      "name": "StudentNotAllowed",
      "type": "error"
    },
    {
      "anonymous": false,
      "inputs": [
        {
          "indexed": true,
          "internalType": "address",
          "name": "student",
          "type": "address"
        },
        {
          "indexed": false,
          "internalType": "uint256",
          "name": "amount",
          "type": "uint256"
        }
      ],
      "name": "DepositReceived",
      "type": "event"
    },
    {
      "anonymous": false,
      "inputs": [],
      "name": "EscrowReady",
      "type": "event"
    },
    {
      "anonymous": false,
      "inputs": [],
      "name": "EscrowRefunded",
      "type": "event"
    },
    {
      "anonymous": false,
      "inputs": [],
      "name": "EscrowReleased",
      "type": "event"
    },
    {
      "anonymous": false,
      "inputs": [],
      "name": "InfoUpdate",
      "type": "event"
    },
    {
      "anonymous": false,
      "inputs": [],
      "name": "ListingConfirmed",
      "type": "event"
    },
    {
      "anonymous": false,
      "inputs": [
        {
          "indexed": true,
          "internalType": "address",
          "name": "educator",
          "type": "address"
        }
      ],
      "name": "PossibleEducatorAdded",
      "type": "event"
    },
    {
      "anonymous": false,
      "inputs": [
        {
          "indexed": true,
          "internalType": "address",
          "name": "educator",
          "type": "address"
        }
      ],
      "name": "PossibleEducatorRemoved",
      "type": "event"
    },
    {
      "anonymous": false,
      "inputs": [
        {
          "indexed": true,
          "internalType": "address",
          "name": "student",
          "type": "address"
        }
      ],
      "name": "StudentAllowed",
      "type": "event"
    },
    {
      "anonymous": false,
      "inputs": [
        {
          "indexed": true,
          "internalType": "address",
          "name": "student",
          "type": "address"
        }
      ],
      "name": "StudentDisallowed",
      "type": "event"
    },
    {
      "inputs": [
        {
          "internalType": "address",
          "name": "educator",
          "type": "address"
        },
        {
          "internalType": "uint256",
          "name": "shares",
          "type": "uint256"
        }
      ],
      "name": "addPotentialEducator",
      "outputs": [],
      "stateMutability": "nonpayable",
      "type": "function"
    },
    {
      "inputs": [
        {
          "internalType": "address",
          "name": "student",
          "type": "address"
        }
      ],
      "name": "allowStudent",
      "outputs": [],
      "stateMutability": "nonpayable",
      "type": "function"
    },
    {
      "inputs": [
        {
          "internalType": "address",
          "name": "",
          "type": "address"
        }
      ],
      "name": "allowedEducators",
      "outputs": [
        {
          "internalType": "bool",
          "name": "",
          "type": "bool"
        }
      ],
      "stateMutability": "view",
      "type": "function"
    },
    {
      "inputs": [
        {
          "internalType": "address",
          "name": "",
          "type": "address"
        }
      ],
      "name": "allowedStudents",
      "outputs": [
        {
          "internalType": "bool",
          "name": "",
          "type": "bool"
        }
      ],
      "stateMutability": "view",
      "type": "function"
    },
    {
      "inputs": [],
      "name": "confirm",
      "outputs": [],
      "stateMutability": "nonpayable",
      "type": "function"
    },
    {
      "inputs": [],
      "name": "creator",
      "outputs": [
        {
          "internalType": "address",
          "name": "",
          "type": "address"
        }
      ],
      "stateMutability": "view",
      "type": "function"
    },
    {
      "inputs": [
        {
          "internalType": "address",
          "name": "student",
          "type": "address"
        }
      ],
      "name": "disallowStudent",
      "outputs": [],
      "stateMutability": "nonpayable",
      "type": "function"
    },
    {
      "inputs": [],
      "name": "educatorCount",
      "outputs": [
        {
          "internalType": "uint256",
          "name": "",
          "type": "uint256"
        }
      ],
      "stateMutability": "view",
      "type": "function"
    },
    {
      "inputs": [],
      "name": "escrow",
      "outputs": [
        {
          "internalType": "address payable",
          "name": "",
          "type": "address"
        }
      ],
      "stateMutability": "view",
      "type": "function"
    },
    {
      "inputs": [],
      "name": "finalizeEducators",
      "outputs": [
        {
          "internalType": "bool",
          "name": "",
          "type": "bool"
        }
      ],
      "stateMutability": "nonpayable",
      "type": "function"
    },
    {
      "inputs": [],
      "name": "getCreator",
      "outputs": [
        {
          "internalType": "address",
          "name": "",
          "type": "address"
        }
      ],
      "stateMutability": "view",
      "type": "function"
    },
    {
      "inputs": [],
      "name": "getPotentialEducators",
      "outputs": [
        {
          "internalType": "address[]",
          "name": "educators",
          "type": "address[]"
        },
        {
          "internalType": "uint256[]",
          "name": "shares",
          "type": "uint256[]"
        }
      ],
      "stateMutability": "view",
      "type": "function"
    },
    {
      "inputs": [],
      "name": "getStateString",
      "outputs": [
        {
          "internalType": "string",
          "name": "",
          "type": "string"
        }
      ],
      "stateMutability": "view",
      "type": "function"
    },
    {
      "inputs": [
        {
          "internalType": "address",
          "name": "whoIs",
          "type": "address"
        }
      ],
      "name": "isEducator",
      "outputs": [
        {
          "internalType": "bool",
          "name": "",
          "type": "bool"
        }
      ],
      "stateMutability": "view",
      "type": "function"
    },
    {
      "inputs": [
        {
          "internalType": "address",
          "name": "whoIs",
          "type": "address"
        }
      ],
      "name": "isStudent",
      "outputs": [
        {
          "internalType": "bool",
          "name": "",
          "type": "bool"
        }
      ],
      "stateMutability": "view",
      "type": "function"
    },
    {
      "inputs": [],
      "name": "objectives",
      "outputs": [
        {
          "internalType": "string",
          "name": "",
          "type": "string"
        }
      ],
      "stateMutability": "view",
      "type": "function"
    },
    {
      "inputs": [],
      "name": "outputSplitter",
      "outputs": [
        {
          "internalType": "address",
          "name": "",
          "type": "address"
        }
      ],
      "stateMutability": "view",
      "type": "function"
    },
    {
      "inputs": [],
      "name": "owner",
      "outputs": [
        {
          "internalType": "address",
          "name": "",
          "type": "address"
        }
      ],
      "stateMutability": "view",
      "type": "function"
    },
    {
      "inputs": [],
      "name": "postAmount",
      "outputs": [
        {
          "internalType": "uint256",
          "name": "",
          "type": "uint256"
        }
      ],
      "stateMutability": "view",
      "type": "function"
    },
    {
      "inputs": [
        {
          "internalType": "address",
          "name": "",
          "type": "address"
        }
      ],
      "name": "potentialEducatorIndex",
      "outputs": [
        {
          "internalType": "uint256",
          "name": "",
          "type": "uint256"
        }
      ],
      "stateMutability": "view",
      "type": "function"
    },
    {
      "inputs": [
        {
          "internalType": "address",
          "name": "",
          "type": "address"
        }
      ],
      "name": "potentialEducatorList",
      "outputs": [
        {
          "internalType": "bool",
          "name": "",
          "type": "bool"
        }
      ],
      "stateMutability": "view",
      "type": "function"
    },
    {
      "inputs": [
        {
          "internalType": "uint256",
          "name": "",
          "type": "uint256"
        }
      ],
      "name": "potentialEducators",
      "outputs": [
        {
          "internalType": "address",
          "name": "account",
          "type": "address"
        },
        {
          "internalType": "uint256",
          "name": "shares",
          "type": "uint256"
        },
        {
          "internalType": "uint256",
          "name": "index",
          "type": "uint256"
        }
      ],
      "stateMutability": "view",
      "type": "function"
    },
    {
      "inputs": [],
      "name": "refundEscrow",
      "outputs": [],
      "stateMutability": "nonpayable",
      "type": "function"
    },
    {
      "inputs": [],
      "name": "releaseEscrow",
      "outputs": [],
      "stateMutability": "nonpayable",
      "type": "function"
    },
    {
      "inputs": [
        {
          "internalType": "address",
          "name": "educator",
          "type": "address"
        }
      ],
      "name": "removePotentialEducator",
      "outputs": [],
      "stateMutability": "nonpayable",
      "type": "function"
    },
    {
      "inputs": [],
      "name": "state",
      "outputs": [
        {
          "internalType": "enum DEDListing.ListingState",
          "name": "",
          "type": "uint8"
        }
      ],
      "stateMutability": "view",
      "type": "function"
    },
    {
      "inputs": [],
      "name": "studentCount",
      "outputs": [
        {
          "internalType": "uint256",
          "name": "",
          "type": "uint256"
        }
      ],
      "stateMutability": "view",
      "type": "function"
    },
    {
      "inputs": [],
      "name": "studentDeposit",
      "outputs": [],
      "stateMutability": "payable",
      "type": "function"
    },
    {
      "inputs": [
        {
          "internalType": "address",
          "name": "",
          "type": "address"
        }
      ],
      "name": "studentDeposits",
      "outputs": [
        {
          "internalType": "uint256",
          "name": "",
          "type": "uint256"
        }
      ],
      "stateMutability": "view",
      "type": "function"
    },
    {
      "inputs": [],
      "name": "subject",
      "outputs": [
        {
          "internalType": "string",
          "name": "",
          "type": "string"
        }
      ],
      "stateMutability": "view",
      "type": "function"
    },
    {
      "inputs": [],
      "name": "topic",
      "outputs": [
        {
          "internalType": "string",
          "name": "",
          "type": "string"
        }
      ],
      "stateMutability": "view",
      "type": "function"
    },
    {
      "inputs": [],
      "name": "totalDeposits",
      "outputs": [
        {
          "internalType": "uint256",
          "name": "",
          "type": "uint256"
        }
      ],
      "stateMutability": "view",
      "type": "function"
    },
    {
      "inputs": [
        {
          "internalType": "string",
          "name": "_subject",
          "type": "string"
        },
        {
          "internalType": "string",
          "name": "_topic",
          "type": "string"
        },
        {
          "internalType": "string",
          "name": "_objectives",
          "type": "string"
        },
        {
          "internalType": "uint256",
          "name": "_postAmount",
          "type": "uint256"
        }
      ],
      "name": "updateInfo",
      "outputs": [],
      "stateMutability": "nonpayable",
      "type": "function"
    }
  ],
  "bytecode": "0x60c06040526000805460ff191690553480156200001b57600080fd5b50604051620043d9380380620043d98339810160408190526200003e9162000210565b8451600003620000615760405163ecd7b0d160e01b815260040160405180910390fd5b8351600003620000845760405163ecd7b0d160e01b815260040160405180910390fd5b8251600003620000a75760405163ecd7b0d160e01b815260040160405180910390fd5b81600003620000c95760405163fe9ba5cd60e01b815260040160405180910390fd5b6001600160a01b038116620000f157604051631186b0dd60e21b815260040160405180910390fd5b6002620000ff86826200035e565b5060016200010e85826200035e565b5060036200011d84826200035e565b506004919091556000805460ff19166001179055336080526001600160a01b031660a052506200042a915050565b634e487b7160e01b600052604160045260246000fd5b600082601f8301126200017357600080fd5b81516001600160401b03808211156200019057620001906200014b565b604051601f8301601f19908116603f01168101908282118183101715620001bb57620001bb6200014b565b81604052838152602092508683858801011115620001d857600080fd5b600091505b83821015620001fc5785820183015181830184015290820190620001dd565b600093810190920192909252949350505050565b600080600080600060a086880312156200022957600080fd5b85516001600160401b03808211156200024157600080fd5b6200024f89838a0162000161565b965060208801519150808211156200026657600080fd5b6200027489838a0162000161565b955060408801519150808211156200028b57600080fd5b506200029a8882890162000161565b60608801516080890151919550935090506001600160a01b0381168114620002c157600080fd5b809150509295509295909350565b600181811c90821680620002e457607f821691505b6020821081036200030557634e487b7160e01b600052602260045260246000fd5b50919050565b601f8211156200035957600081815260208120601f850160051c81016020861015620003345750805b601f850160051c820191505b81811015620003555782815560010162000340565b5050505b505050565b81516001600160401b038111156200037a576200037a6200014b565b62000392816200038b8454620002cf565b846200030b565b602080601f831160018114620003ca5760008415620003b15750858301515b600019600386901b1c1916600185901b17855562000355565b600085815260208120601f198616915b82811015620003fb57888601518255948401946001909101908401620003da565b50858210156200041a5787850151600019600388901b60f8161c191681555b5050505050600190811b01905550565b60805160a051613f04620004d560003960008181610230015281816102a60152818161081e01528181610bfe01528181610e830152818161100f01528181611567015281816116570152818161187f01528181611bd00152611d7601526000818161058a015281816107eb01528181610bcb01528181610e5001528181610fdc01528181611534015281816116240152818161184c01528181611b9d0152611d430152613f046000f3fe608060405260043610620002175760003560e01c80637d88209711620001235780639b8de62811620000ad578063e2fdcc171162000078578063e2fdcc171462000677578063e581f9ee1462000699578063ea906e5714620006b1578063ef1aa36e14620006e5578063f4b62bd3146200073057600080fd5b80639b8de62814620005ea578063b1bf1165146200060f578063bf63a5771462000634578063c19d93fb146200064c57600080fd5b80638cd9681411620000ee5780638cd96814146200055e5780638da5cb5b1462000576578063969e203814620005ac57806398564c4f14620005e057600080fd5b80637d88209714620004bd57806381929b9c14620004d557806382f7d3921462000509578063840b4f23146200054657600080fd5b80634be9194411620001a55780636e5cc4a311620001705780636e5cc4a3146200042b5780637022b58e1462000468578063757a554314620004805780637a38fa56146200049857600080fd5b80634be9194414620003985780635575713714620003b057806361cbadc314620003d257806365aaebb214620003fa57600080fd5b80632d62766111620001e65780632d62766114620002f4578063310c8b5414620003345780633ae2e7bd146200035b5780633f775f16146200037357600080fd5b806302d05d3f146200021c5780630a59a98c146200026f5780630ee2cb1014620002965780631a8212fb14620002cb575b600080fd5b3480156200022957600080fd5b50620002527f000000000000000000000000000000000000000000000000000000000000000081565b6040516001600160a01b0390911681526020015b60405180910390f35b3480156200027c57600080fd5b506200028762000748565b60405162000266919062002311565b348015620002a357600080fd5b507f000000000000000000000000000000000000000000000000000000000000000062000252565b348015620002d857600080fd5b50620002e3620007de565b604051901515815260200162000266565b3480156200030157600080fd5b5062000325620003133660046200237e565b60076020526000908152604090205481565b60405190815260200162000266565b3480156200034157600080fd5b506200035962000353366004620023a3565b62000bc0565b005b3480156200036857600080fd5b5062000325600b5481565b3480156200038057600080fd5b5062000359620003923660046200237e565b62000e45565b348015620003a557600080fd5b506200035962000fd1565b348015620003bd57600080fd5b50600f5462000252906001600160a01b031681565b348015620003df57600080fd5b50620003ea620012d8565b60405162000266929190620023d0565b3480156200040757600080fd5b5062000325620004193660046200237e565b600c6020526000908152604090205481565b3480156200043857600080fd5b50620002e36200044a3660046200237e565b6001600160a01b03166000908152600a602052604090205460ff1690565b3480156200047557600080fd5b506200035962001529565b3480156200048d57600080fd5b506200035962001619565b348015620004a557600080fd5b5062000359620004b73660046200237e565b62001841565b348015620004ca57600080fd5b5062000325600d5481565b348015620004e257600080fd5b50620002e3620004f43660046200237e565b60086020526000908152604090205460ff1681565b3480156200051657600080fd5b50620002e3620005283660046200237e565b6001600160a01b031660009081526005602052604090205460ff1690565b3480156200055357600080fd5b5062000287620019a1565b3480156200056b57600080fd5b506200032560045481565b3480156200058357600080fd5b50620002527f000000000000000000000000000000000000000000000000000000000000000081565b348015620005b957600080fd5b50620002e3620005cb3660046200237e565b600a6020526000908152604090205460ff1681565b62000359620019b0565b348015620005f757600080fd5b50620003596200060936600462002503565b62001b92565b3480156200061c57600080fd5b50620003596200062e3660046200237e565b62001d38565b3480156200064157600080fd5b506200028762001e88565b3480156200065957600080fd5b50600054620006689060ff1681565b604051620002669190620025b3565b3480156200068457600080fd5b50600e5462000252906001600160a01b031681565b348015620006a657600080fd5b506200032560065481565b348015620006be57600080fd5b50620002e3620006d03660046200237e565b60056020526000908152604090205460ff1681565b348015620006f257600080fd5b506200070a62000704366004620025dc565b62001e97565b604080516001600160a01b03909416845260208401929092529082015260600162000266565b3480156200073d57600080fd5b506200028762001ed5565b600280546200075790620025f6565b80601f01602080910402602001604051908101604052809291908181526020018280546200078590620025f6565b8015620007d65780601f10620007aa57610100808354040283529160200191620007d6565b820191906000526020600020905b815481529060010190602001808311620007b857829003601f168201915b505050505081565b6000336001600160a01b037f0000000000000000000000000000000000000000000000000000000000000000161480620008405750336001600160a01b037f000000000000000000000000000000000000000000000000000000000000000016145b620008685760405162461bcd60e51b81526004016200085f9062002632565b60405180910390fd5b600160005460ff1660068111156200088457620008846200259d565b14620008a357604051635502a78160e11b815260040160405180910390fd5b3068929eee149b4bd212685403620008c35763ab143c066000526004601cfd5b3068929eee149b4bd2126855600954600003620008f35760405163b949d85d60e01b815260040160405180910390fd5b60095460009067ffffffffffffffff81111562000914576200091462002458565b6040519080825280602002602001820160405280156200093e578160200160208202803683370190505b5060095490915060009067ffffffffffffffff81111562000963576200096362002458565b6040519080825280602002602001820160405280156200098d578160200160208202803683370190505b50905060005b60095481101562000aba57600060098281548110620009b657620009b66200267e565b6000918252602080832060408051606081018252600390940290910180546001600160a01b031680855260018201548585015260029091015484830152845260089091529091205490915060ff161562000aa45780516001600160a01b03166000908152600a60205260409020805460ff191660011790558051845185908490811062000a475762000a476200267e565b60200260200101906001600160a01b031690816001600160a01b031681525050806020015183838151811062000a815762000a816200267e565b6020908102919091010152600b805490600062000a9e83620026aa565b91905055505b508062000ab181620026aa565b91505062000993565b50818160405162000acb90620022f5565b62000ad8929190620023d0565b604051809103906000f08015801562000af5573d6000803e3d6000fd5b50600f80546001600160a01b0319166001600160a01b03929092169182179055604051600090829062000b289062002303565b6001600160a01b039091168152602001604051809103906000f08015801562000b55573d6000803e3d6000fd5b50600e80546001600160a01b0383166001600160a01b03199091161790556000805460ff191660021781556040519192507f058e9c0f45c10f9bb7f7f3f7b4543198fe3ca44486b59cf3a97e00218f742b8f91a160019450505050503868929eee149b4bd212685590565b336001600160a01b037f000000000000000000000000000000000000000000000000000000000000000016148062000c205750336001600160a01b037f000000000000000000000000000000000000000000000000000000000000000016145b62000c3f5760405162461bcd60e51b81526004016200085f9062002632565b600160005460ff16600681111562000c5b5762000c5b6200259d565b1462000c7a57604051635502a78160e11b815260040160405180910390fd5b6001600160a01b03821662000ca257604051631f62991d60e31b815260040160405180910390fd5b6001600160a01b03821660009081526008602052604090205460ff161562000cdd57604051630eb5b69760e41b815260040160405180910390fd5b8060000362000d2f5760405162461bcd60e51b815260206004820152601d60248201527f536861726573206d7573742062652067726561746572207468616e203000000060448201526064016200085f565b60098054604080516060810182526001600160a01b03868116808352602080840188815284860187815260018089018a556000998a5286517f6e1540171b6c0c960b71a7020d9f60077f6af931a8bbf590da0223dacf75c7af60038b0290810180546001600160a01b031916929098169190911790965591517f6e1540171b6c0c960b71a7020d9f60077f6af931a8bbf590da0223dacf75c7b0860155517f6e1540171b6c0c960b71a7020d9f60077f6af931a8bbf590da0223dacf75c7b1909401939093558187526007815284872086905560089052838620805460ff19169092179091559151929390927f29731592ee854d980200b3493c7396572a3edbbcf99d7b3c9203c351d2914bf09190a250505050565b336001600160a01b037f000000000000000000000000000000000000000000000000000000000000000016148062000ea55750336001600160a01b037f000000000000000000000000000000000000000000000000000000000000000016145b62000ec45760405162461bcd60e51b81526004016200085f9062002632565b600160005460ff16600681111562000ee05762000ee06200259d565b1462000eff57604051635502a78160e11b815260040160405180910390fd5b6001600160a01b03811662000f2757604051631186b0dd60e21b815260040160405180910390fd5b6001600160a01b03811660009081526005602052604090205460ff161562000f625760405163f098194f60e01b815260040160405180910390fd5b6001600160a01b0381166000908152600560205260408120805460ff19166001179055600680549162000f9583620026aa565b90915550506040516001600160a01b038216907f7de4163fbbcee05669037d37efd601a44bb760f28d8003a41aca71da73e798de90600090a250565b336001600160a01b037f0000000000000000000000000000000000000000000000000000000000000000161480620010315750336001600160a01b037f000000000000000000000000000000000000000000000000000000000000000016145b620010505760405162461bcd60e51b81526004016200085f9062002632565b600460005460ff1660068111156200106c576200106c6200259d565b146200108b5760405163bf16ddd760e01b815260040160405180910390fd5b600e546001600160a01b03166000816001600160a01b031663c19d93fb6040518163ffffffff1660e01b8152600401602060405180830381865afa158015620010d8573d6000803e3d6000fd5b505050506040513d601f19601f82011682018060405250810190620010fe9190620026c6565b60028111156200111257620011126200259d565b146200113157604051635ab234b560e11b815260040160405180910390fd5b6000805460ff1916600517815560408051638c52dc4160e01b815290516001600160a01b03841692638c52dc41926004808201939182900301818387803b1580156200117c57600080fd5b505af115801562001191573d6000803e3d6000fd5b5050505060005b600954811015620012ab57600060098281548110620011bb57620011bb6200267e565b6000918252602080832060408051606081018252600390940290910180546001600160a01b031680855260018201548585015260029091015484830152845260059091529091205490915060ff1680156200122e575080516001600160a01b03166000908152600c602052604090205415155b15620012955780516040516351cff8d960e01b81526001600160a01b039182166004820152908416906351cff8d990602401600060405180830381600087803b1580156200127b57600080fd5b505af115801562001290573d6000803e3d6000fd5b505050505b5080620012a281620026aa565b91505062001198565b506040517fc18867e1fee9ed2f91c9cbc09114a38fea5ff57872cd9171a3f551a360d048d990600090a150565b6060806000805b6009548110156200135c5760086000600983815481106200130457620013046200267e565b600091825260208083206003909202909101546001600160a01b0316835282019290925260400190205460ff16156200134757816200134381620026aa565b9250505b806200135381620026aa565b915050620012df565b508067ffffffffffffffff81111562001379576200137962002458565b604051908082528060200260200182016040528015620013a3578160200160208202803683370190505b5092508067ffffffffffffffff811115620013c257620013c262002458565b604051908082528060200260200182016040528015620013ec578160200160208202803683370190505b5091506000805b600954811015620015225760086000600983815481106200141857620014186200267e565b600091825260208083206003909202909101546001600160a01b0316835282019290925260400190205460ff16156200150d57600981815481106200146157620014616200267e565b600091825260209091206003909102015485516001600160a01b03909116908690849081106200149557620014956200267e565b60200260200101906001600160a01b031690816001600160a01b03168152505060098181548110620014cb57620014cb6200267e565b906000526020600020906003020160010154848381518110620014f257620014f26200267e565b6020908102919091010152816200150981620026aa565b9250505b806200151981620026aa565b915050620013f3565b5050509091565b336001600160a01b037f0000000000000000000000000000000000000000000000000000000000000000161480620015895750336001600160a01b037f000000000000000000000000000000000000000000000000000000000000000016145b620015a85760405162461bcd60e51b81526004016200085f9062002632565b600360005460ff166006811115620015c457620015c46200259d565b14620015e3576040516358989ac760e01b815260040160405180910390fd5b6000805460ff191660041781556040517f9300516cbfa9c315617f06a75abffecd558932c6907dfd564c4c264132c6b74e9190a1565b336001600160a01b037f0000000000000000000000000000000000000000000000000000000000000000161480620016795750336001600160a01b037f000000000000000000000000000000000000000000000000000000000000000016145b620016985760405162461bcd60e51b81526004016200085f9062002632565b600460005460ff166006811115620016b457620016b46200259d565b14620016d35760405163bf16ddd760e01b815260040160405180910390fd5b3068929eee149b4bd212685403620016f35763ab143c066000526004601cfd5b3068929eee149b4bd2126855600e546001600160a01b03166002816001600160a01b031663c19d93fb6040518163ffffffff1660e01b8152600401602060405180830381865afa1580156200174c573d6000803e3d6000fd5b505050506040513d601f19601f82011682018060405250810190620017729190620026c6565b60028111156200178657620017866200259d565b14620017a557604051635ab234b560e11b815260040160405180910390fd5b6000805460ff19166006178155604080516321eb936b60e11b815290516001600160a01b038416926343d726d6926004808201939182900301818387803b158015620017f057600080fd5b505af115801562001805573d6000803e3d6000fd5b50506040517fee9cca86ce471646598c6ad7a2d7315e8221486d1dd0a10177346a28ecd986fa925060009150a1503868929eee149b4bd2126855565b336001600160a01b037f0000000000000000000000000000000000000000000000000000000000000000161480620018a15750336001600160a01b037f000000000000000000000000000000000000000000000000000000000000000016145b620018c05760405162461bcd60e51b81526004016200085f9062002632565b600160005460ff166006811115620018dc57620018dc6200259d565b14620018fb57604051635502a78160e11b815260040160405180910390fd5b6001600160a01b03811660009081526005602052604090205460ff1662001935576040516374b0a56960e01b815260040160405180910390fd5b6001600160a01b0381166000908152600560205260408120805460ff1916905560068054916200196583620026e9565b90915550506040516001600160a01b038216907f8086706ecdd3cdaacf5f35345b440a156ae8eca054eff541ef96e89fb8f98adb90600090a250565b600380546200075790620025f6565b3360009081526005602052604090205460ff16620019e1576040516341b46a4160e11b815260040160405180910390fd5b600260005460ff166006811115620019fd57620019fd6200259d565b1462001a1c5760405163454dbfbb60e11b815260040160405180910390fd5b3068929eee149b4bd21268540362001a3c5763ab143c066000526004601cfd5b3068929eee149b4bd21268553460000362001a6a5760405163fe9ba5cd60e01b815260040160405180910390fd5b600454341462001a8d5760405163fe9ba5cd60e01b815260040160405180910390fd5b600e5460405163f340fa0160e01b81523360048201526001600160a01b0390911690819063f340fa019034906024016000604051808303818588803b15801562001ad657600080fd5b505af115801562001aeb573d6000803e3d6000fd5b5050336000908152600c602052604081203490819055600d8054919550935090915062001b1a90849062002703565b909155505060405134815233907f9936746a4565f9766fa768f88f56a7487c78780ac179562773d1c75c5269537e9060200160405180910390a26000600b5460045462001b6891906200271f565b905080600d541062001b82576000805460ff191660031790555b50503868929eee149b4bd2126855565b336001600160a01b037f000000000000000000000000000000000000000000000000000000000000000016148062001bf25750336001600160a01b037f000000000000000000000000000000000000000000000000000000000000000016145b62001c115760405162461bcd60e51b81526004016200085f9062002632565b600160005460ff16600681111562001c2d5762001c2d6200259d565b1462001c4c57604051635502a78160e11b815260040160405180910390fd5b835160000362001c6f5760405163ecd7b0d160e01b815260040160405180910390fd5b825160000362001c925760405163ecd7b0d160e01b815260040160405180910390fd5b815160000362001cb55760405163ecd7b0d160e01b815260040160405180910390fd5b8060000362001cd75760405163fe9ba5cd60e01b815260040160405180910390fd5b600262001ce585826200278c565b50600162001cf484826200278c565b50600362001d0383826200278c565b5060048190556040517f579d1198506d9238b88e8ae90b599aa3b8e84aeca6151deb26d9adc89541f31790600090a150505050565b336001600160a01b037f000000000000000000000000000000000000000000000000000000000000000016148062001d985750336001600160a01b037f000000000000000000000000000000000000000000000000000000000000000016145b62001db75760405162461bcd60e51b81526004016200085f9062002632565b600160005460ff16600681111562001dd35762001dd36200259d565b1462001df257604051635502a78160e11b815260040160405180910390fd5b6001600160a01b03811660009081526008602052604090205460ff1662001e2c5760405163050cca1560e51b815260040160405180910390fd5b6001600160a01b03811660009081526007602052604090205462001e5081620020f8565b6040516001600160a01b038316907fe8ff6076690d754777b9220c1ee0319634fb43ee2bb8db47074698877e89572590600090a25050565b600180546200075790620025f6565b6009818154811062001ea857600080fd5b60009182526020909120600390910201805460018201546002909201546001600160a01b03909116925083565b60606000805460ff16600681111562001ef25762001ef26200259d565b0362001f1a575060408051808201909152600781526610dc99585d195960ca1b602082015290565b600160005460ff16600681111562001f365762001f366200259d565b0362001f6c5750604080518082019091526015815274416363657074696e675061727469636970616e747360581b602082015290565b600260005460ff16600681111562001f885762001f886200259d565b0362001fb9575060408051808201909152601081526f1058d8d95c1d1a5b99d1195c1bdcda5d60821b602082015290565b600360005460ff16600681111562001fd55762001fd56200259d565b0362002005575060408051808201909152600f81526e4177616974696e67436f6e6669726d60881b602082015290565b600460005460ff1660068111156200202157620020216200259d565b036200204c575060408051808201909152600a815269496e50726f677265737360b01b602082015290565b600560005460ff1660068111156200206857620020686200259d565b036200209157506040805180820190915260088152671499599d5b99195960c21b602082015290565b600660005460ff166006811115620020ad57620020ad6200259d565b03620020d6575060408051808201909152600881526714995b19585cd95960c21b602082015290565b506040805180820190915260078152662ab735b737bbb760c91b602082015290565b6009548110620021415760405162461bcd60e51b8152602060048201526013602482015272496e646578206f7574206f6620626f756e647360681b60448201526064016200085f565b600060086000600984815481106200215d576200215d6200267e565b60009182526020808320600392909202909101546001600160a01b031683528201929092526040019020805460ff1916911515919091179055600954620021a79060019062002859565b8114620022ae5760098054620021c09060019062002859565b81548110620021d357620021d36200267e565b906000526020600020906003020160098281548110620021f757620021f76200267e565b60009182526020909120825460039092020180546001600160a01b0319166001600160a01b039092169190911781556001808301549082015560029182015491015560098054829190829081106200225357620022536200267e565b9060005260206000209060030201600201819055508060076000600984815481106200228357620022836200267e565b600091825260208083206003909202909101546001600160a01b031683528201929092526040019020555b6009805480620022c257620022c26200286f565b60008281526020812060036000199093019283020180546001600160a01b03191681556001810182905560020155905550565b610b67806200288683390190565b610ae280620033ed83390190565b600060208083528351808285015260005b81811015620023405785810183015185820160400152820162002322565b506000604082860101526040601f19601f8301168501019250505092915050565b80356001600160a01b03811681146200237957600080fd5b919050565b6000602082840312156200239157600080fd5b6200239c8262002361565b9392505050565b60008060408385031215620023b757600080fd5b620023c28362002361565b946020939093013593505050565b604080825283519082018190526000906020906060840190828701845b82811015620024145781516001600160a01b031684529284019290840190600101620023ed565b5050508381038285015284518082528583019183019060005b818110156200244b578351835292840192918401916001016200242d565b5090979650505050505050565b634e487b7160e01b600052604160045260246000fd5b600082601f8301126200248057600080fd5b813567ffffffffffffffff808211156200249e576200249e62002458565b604051601f8301601f19908116603f01168101908282118183101715620024c957620024c962002458565b81604052838152866020858801011115620024e357600080fd5b836020870160208301376000602085830101528094505050505092915050565b600080600080608085870312156200251a57600080fd5b843567ffffffffffffffff808211156200253357600080fd5b62002541888389016200246e565b955060208701359150808211156200255857600080fd5b62002566888389016200246e565b945060408701359150808211156200257d57600080fd5b506200258c878288016200246e565b949793965093946060013593505050565b634e487b7160e01b600052602160045260246000fd5b6020810160078310620025d657634e487b7160e01b600052602160045260246000fd5b91905290565b600060208284031215620025ef57600080fd5b5035919050565b600181811c908216806200260b57607f821691505b6020821081036200262c57634e487b7160e01b600052602260045260246000fd5b50919050565b6020808252602c908201527f4f6e6c79206f776e6572206f722063726561746f722063616e2063616c6c207460408201526b3434b990333ab731ba34b7b760a11b606082015260800190565b634e487b7160e01b600052603260045260246000fd5b634e487b7160e01b600052601160045260246000fd5b600060018201620026bf57620026bf62002694565b5060010190565b600060208284031215620026d957600080fd5b8151600381106200239c57600080fd5b600081620026fb57620026fb62002694565b506000190190565b8082018082111562002719576200271962002694565b92915050565b808202811582820484141762002719576200271962002694565b601f8211156200278757600081815260208120601f850160051c81016020861015620027625750805b601f850160051c820191505b8181101562002783578281556001016200276e565b5050505b505050565b815167ffffffffffffffff811115620027a957620027a962002458565b620027c181620027ba8454620025f6565b8462002739565b602080601f831160018114620027f95760008415620027e05750858301515b600019600386901b1c1916600185901b17855562002783565b600085815260208120601f198616915b828110156200282a5788860151825594840194600190910190840162002809565b5085821015620028495787850151600019600388901b60f8161c191681555b5050505050600190811b01905550565b8181038181111562002719576200271962002694565b634e487b7160e01b600052603160045260246000fdfe60806040523480156200001157600080fd5b5060405162000b6738038062000b6783398101604081905262000034916200043c565b8051825114620000a65760405162461bcd60e51b815260206004820152603260248201527f5061796d656e7453706c69747465723a2070617965657320616e6420736861726044820152710cae640d8cadccee8d040dad2e6dac2e8c6d60731b60648201526084015b60405180910390fd5b6000825111620000f95760405162461bcd60e51b815260206004820152601a60248201527f5061796d656e7453706c69747465723a206e6f2070617965657300000000000060448201526064016200009d565b60005b82518110156200016557620001508382815181106200011f576200011f6200051a565b60200260200101518383815181106200013c576200013c6200051a565b60200260200101516200016e60201b60201c565b806200015c8162000546565b915050620000fc565b5050506200057e565b6001600160a01b038216620001db5760405162461bcd60e51b815260206004820152602c60248201527f5061796d656e7453706c69747465723a206163636f756e74206973207468652060448201526b7a65726f206164647265737360a01b60648201526084016200009d565b600081116200022d5760405162461bcd60e51b815260206004820152601d60248201527f5061796d656e7453706c69747465723a2073686172657320617265203000000060448201526064016200009d565b6001600160a01b03821660009081526002602052604090205415620002a95760405162461bcd60e51b815260206004820152602b60248201527f5061796d656e7453706c69747465723a206163636f756e7420616c726561647960448201526a206861732073686172657360a81b60648201526084016200009d565b60048054600181019091557f8a35acfbc15ff81a39ae7d344fd709f28e8600b4aa8c65c6b64bfe7fe36bd19b0180546001600160a01b0319166001600160a01b0384169081179091556000908152600260205260408120829055546200031190829062000562565b600055604080516001600160a01b0384168152602081018390527f40c340f65e17194d14ddddb073d3c9f888e3cb52b5aae0c6c7706b4fbc905fac910160405180910390a15050565b634e487b7160e01b600052604160045260246000fd5b604051601f8201601f191681016001600160401b03811182821017156200039b576200039b6200035a565b604052919050565b60006001600160401b03821115620003bf57620003bf6200035a565b5060051b60200190565b600082601f830112620003db57600080fd5b81516020620003f4620003ee83620003a3565b62000370565b82815260059290921b840181019181810190868411156200041457600080fd5b8286015b8481101562000431578051835291830191830162000418565b509695505050505050565b600080604083850312156200045057600080fd5b82516001600160401b03808211156200046857600080fd5b818501915085601f8301126200047d57600080fd5b8151602062000490620003ee83620003a3565b82815260059290921b84018101918181019089841115620004b057600080fd5b948201945b83861015620004e75785516001600160a01b0381168114620004d75760008081fd5b82529482019490820190620004b5565b918801519196509093505050808211156200050157600080fd5b506200051085828601620003c9565b9150509250929050565b634e487b7160e01b600052603260045260246000fd5b634e487b7160e01b600052601160045260246000fd5b6000600182016200055b576200055b62000530565b5060010190565b8082018082111562000578576200057862000530565b92915050565b6105d9806200058e6000396000f3fe6080604052600436106100735760003560e01c80638b83209b1161004e5780638b83209b146101125780639852595c1461014a578063ce7c2ac214610180578063e33b7de3146101b657600080fd5b8062dbe109146100b757806319165587146100db5780633a98ef39146100fd57600080fd5b366100b257604080513381523460208201527f6ef95f06320e7a25a04a175ca677b7052bdd97131872c2192525a629f51be770910160405180910390a1005b600080fd5b3480156100c357600080fd5b506004545b6040519081526020015b60405180910390f35b3480156100e757600080fd5b506100fb6100f63660046104d5565b6101cb565b005b34801561010957600080fd5b506000546100c8565b34801561011e57600080fd5b5061013261012d3660046104f9565b61044a565b6040516001600160a01b0390911681526020016100d2565b34801561015657600080fd5b506100c86101653660046104d5565b6001600160a01b031660009081526003602052604090205490565b34801561018c57600080fd5b506100c861019b3660046104d5565b6001600160a01b031660009081526002602052604090205490565b3480156101c257600080fd5b506001546100c8565b3068929eee149b4bd2126854036101ea5763ab143c066000526004601cfd5b3068929eee149b4bd21268556001600160a01b03811660009081526002602052604090205461026f5760405162461bcd60e51b815260206004820152602660248201527f5061796d656e7453706c69747465723a206163636f756e7420686173206e6f2060448201526573686172657360d01b60648201526084015b60405180910390fd5b60006001544761027f9190610528565b6001600160a01b038316600090815260036020526040812054919250906102a9908490849061047a565b90508060000361030f5760405162461bcd60e51b815260206004820152602b60248201527f5061796d656e7453706c69747465723a206163636f756e74206973206e6f742060448201526a191d59481c185e5b595b9d60aa1b6064820152608401610266565b6001600160a01b03831660009081526003602052604081208054839290610337908490610528565b9250508190555080600160008282546103509190610528565b90915550506040516000906001600160a01b0385169083908381818185875af1925050503d80600081146103a0576040519150601f19603f3d011682016040523d82523d6000602084013e6103a5565b606091505b50509050806103f65760405162461bcd60e51b815260206004820181905260248201527f5061796d656e7453706c69747465723a207472616e73666572206661696c65646044820152606401610266565b604080516001600160a01b0386168152602081018490527fdf20fd1e76bc69d672e4814fafb2c449bba3a5369d8359adf9e05e6fde87b056910160405180910390a15050503868929eee149b4bd212685550565b60006004828154811061045f5761045f610541565b6000918252602090912001546001600160a01b031692915050565b600080546001600160a01b0385168252600260205260408220548391906104a19086610557565b6104ab919061056e565b6104b59190610590565b949350505050565b6001600160a01b03811681146104d257600080fd5b50565b6000602082840312156104e757600080fd5b81356104f2816104bd565b9392505050565b60006020828403121561050b57600080fd5b5035919050565b634e487b7160e01b600052601160045260246000fd5b8082018082111561053b5761053b610512565b92915050565b634e487b7160e01b600052603260045260246000fd5b808202811582820484141761053b5761053b610512565b60008261058b57634e487b7160e01b600052601260045260246000fd5b500490565b8181038181111561053b5761053b61051256fea264697066735822122029b9aca0a19ebb8ac14e77e05e584bbce48e6bd4d984695b9e510e7abf565c4d64736f6c6343000814003360a060405234801561001057600080fd5b50604051610ae2380380610ae283398101604081905261002f91610071565b6001600160a01b03811661005657604051637eef8be360e01b815260040160405180910390fd5b6001600160a01b03166080526000805460ff191690556100a1565b60006020828403121561008357600080fd5b81516001600160a01b038116811461009a57600080fd5b9392505050565b608051610a0a6100d860003960008181610127015281816102af015281816105bc0152818161068201526107140152610a0a6000f3fe6080604052600436106100ab5760003560e01c80638c376a68116100645780638c376a68146101fc5780638c52dc41146102115780639af6549a14610226578063c19d93fb1461023b578063e3a9db1a1461025b578063f340fa011461029157600080fd5b8063089580eb1461010d578063277327a51461015657806343d726d61461017857806351cff8d91461018d578063685ca194146101ad5780637d882097146101dd57600080fd5b366101085760405162461bcd60e51b815260206004820152602260248201527f557365206465706f73697428292066756e6374696f6e20746f2073656e6420456044820152610a8960f31b60648201526084015b60405180910390fd5b600080fd5b34801561011957600080fd5b506040516001600160a01b037f00000000000000000000000000000000000000000000000000000000000000001681526020015b60405180910390f35b34801561016257600080fd5b506101766101713660046108a4565b6102a4565b005b34801561018457600080fd5b50610176610318565b34801561019957600080fd5b506101766101a83660046108e5565b610384565b3480156101b957600080fd5b506101cd6101c83660046108e5565b610518565b604051901515815260200161014d565b3480156101e957600080fd5b506002545b60405190815260200161014d565b34801561020857600080fd5b5061017661053a565b34801561021d57600080fd5b50610176610545565b34801561023257600080fd5b506101766105b1565b34801561024757600080fd5b5060005460ff1660405161014d919061091f565b34801561026757600080fd5b506101ee6102763660046108e5565b6001600160a01b031660009081526001602052604090205490565b61017661029f3660046108e5565b610785565b336001600160a01b037f000000000000000000000000000000000000000000000000000000000000000016146102ec5760405162461bcd60e51b81526004016100ff90610947565b6001600160a01b03821661031357604051637eef8be360e01b815260040160405180910390fd5b505050565b6000805460ff16600281111561033057610330610909565b1461034e5760405163d5920adf60e01b815260040160405180910390fd5b6000805460ff191660021781556040517f088672c3a6e342f7cd94a65ba63b79df24a8973927b4d05d803c44bbf787d12f9190a1565b3068929eee149b4bd2126854036103a35763ab143c066000526004601cfd5b3068929eee149b4bd2126855600160005460ff1660028111156103c8576103c8610909565b146103e65760405163482841d160e01b815260040160405180910390fd5b6001600160a01b038116600090815260016020526040812054908190036104205760405163181ac37160e11b815260040160405180910390fd5b6001600160a01b03821660009081526001602052604081208190556002805483929061044d9084906109a8565b90915550506040516000906001600160a01b0384169083908381818185875af1925050503d806000811461049d576040519150601f19603f3d011682016040523d82523d6000602084013e6104a2565b606091505b50509050806104c457604051630fd9e7f560e21b815260040160405180910390fd5b826001600160a01b03167f7fcf532c15f0a6db0bd6d0e038bea71d30d808c7d98cb3bf7268a95bf5081b65836040516104ff91815260200190565b60405180910390a250503868929eee149b4bd212685550565b6000600160005460ff16600281111561053357610533610909565b1492915050565b61054333610384565b565b6000805460ff16600281111561055d5761055d610909565b1461057b5760405163f926a08760e01b815260040160405180910390fd5b6000805460ff191660011781556040517f599d8e5a83cffb867d051598c4d70e805d59802d8081c1c7d6dffc5b6aca2b899190a1565b336001600160a01b037f000000000000000000000000000000000000000000000000000000000000000016146105f95760405162461bcd60e51b81526004016100ff90610947565b3068929eee149b4bd2126854036106185763ab143c066000526004601cfd5b3068929eee149b4bd2126855600260005460ff16600281111561063d5761063d610909565b1461065b5760405163605fd88360e01b815260040160405180910390fd5b47600081900361067e5760405163181ac37160e11b815260040160405180910390fd5b60007f00000000000000000000000000000000000000000000000000000000000000006001600160a01b03168260405160006040518083038185875af1925050503d80600081146106eb576040519150601f19603f3d011682016040523d82523d6000602084013e6106f0565b606091505b505090508061071257604051630fd9e7f560e21b815260040160405180910390fd5b7f00000000000000000000000000000000000000000000000000000000000000006001600160a01b03167fd00df452345191b30a1d0c9f107ee92a95ddb17879f884f4ee4cfb650a5f3d768360405161076d91815260200190565b60405180910390a250503868929eee149b4bd2126855565b6000805460ff16600281111561079d5761079d610909565b146107bb57604051636c84f9f560e11b815260040160405180910390fd5b6001600160a01b0381166107e257604051637eef8be360e01b815260040160405180910390fd5b346000036108035760405163181ac37160e11b815260040160405180910390fd5b6001600160a01b0381166000908152600160205260408120805434929061082b9084906109c1565b92505081905550346002600082825461084491906109c1565b90915550506040513481526001600160a01b0382169033907f5548c837ab068cf56a2c2479df0882a4922fd203edb7517321831d95078c5f629060200160405180910390a350565b6001600160a01b03811681146108a157600080fd5b50565b6000806000606084860312156108b957600080fd5b83356108c48161088c565b925060208401356108d48161088c565b929592945050506040919091013590565b6000602082840312156108f757600080fd5b81356109028161088c565b9392505050565b634e487b7160e01b600052602160045260246000fd5b602081016003831061094157634e487b7160e01b600052602160045260246000fd5b91905290565b6020808252602b908201527f4f6e6c79207468652062656e65666963696172792063616e2063616c6c20746860408201526a34b990333ab731ba34b7b760a91b606082015260800190565b634e487b7160e01b600052601160045260246000fd5b818103818111156109bb576109bb610992565b92915050565b808201808211156109bb576109bb61099256fea2646970667358221220484b47c1403e91f99e19c227a3d266da6c661d8996fb8922cc3f533679f60fbf64736f6c63430008140033a264697066735822122007b650e710fdd268c9a2619218c705de003e0e8519097aee513c866aea83a27864736f6c63430008140033",
  "linkReferences": {},
  "deployedLinkReferences": {}
}