{
  "_format": "hh-sol-artifact-1",
  "contractName": "DEDProfile",
  "sourceName": "src/DEDProfile.sol",
  "abi": [
    {
      "inputs": [],
      "stateMutability": "nonpayable",
      "type": "constructor"
    },
    {
      "anonymous": false,
      "inputs": [
        {
          "indexed": true,
          "internalType": "address",
          "name": "user",
          "type": "address"
        }
      ],
      "name": "ProfileCreated",
      "type": "event"
    },
    {
      "anonymous": false,
      "inputs": [
        {
          "indexed": true,
          "internalType": "address",
          "name": "user",
          "type": "address"
        },
        {
          "indexed": false,
          "internalType": "string",
          "name": "displayName",
          "type": "string"
        },
        {
          "indexed": false,
          "internalType": "string",
          "name": "bio",
          "type": "string"
        }
      ],
      "name": "ProfileUpdated",
      "type": "event"
    },
    {
      "inputs": [],
      "name": "bio",
      "outputs": [
        {
          "internalType": "string",
          "name": "",
          "type": "string"
        }
      ],
      "stateMutability": "view",
      "type": "function"
    },
    {
      "inputs": [],
      "name": "displayName",
      "outputs": [
        {
          "internalType": "string",
          "name": "",
          "type": "string"
        }
      ],
      "stateMutability": "view",
      "type": "function"
    },
    {
      "inputs": [],
      "name": "getProfileInfo",
      "outputs": [
        {
          "internalType": "string",
          "name": "",
          "type": "string"
        },
        {
          "internalType": "string",
          "name": "",
          "type": "string"
        },
        {
          "internalType": "address",
          "name": "",
          "type": "address"
        }
      ],
      "stateMutability": "view",
      "type": "function"
    },
    {
      "inputs": [
        {
          "internalType": "string",
          "name": "_displayName",
          "type": "string"
        },
        {
          "internalType": "string",
          "name": "_bio",
          "type": "string"
        }
      ],
      "name": "updateInfo",
      "outputs": [
        {
          "internalType": "bool",
          "name": "",
          "type": "bool"
        }
      ],
      "stateMutability": "nonpayable",
      "type": "function"
    },
    {
      "inputs": [],
      "name": "userAddress",
      "outputs": [
        {
          "internalType": "address",
          "name": "",
          "type": "address"
        }
      ],
      "stateMutability": "view",
      "type": "function"
    }
  ],
  "bytecode": "0x60a060405234801561001057600080fd5b503260808190526040517ff10ec97e920cde75887622583772c637595a40b1f7777c18e51ea36cd127475c90600090a260805161082d6100686000396000818160b9015281816101050152610254015261082d6000f3fe608060405234801561001057600080fd5b50600436106100575760003560e01c80633bafe3131461005c57806347d5a0911461007c5780634affb2601461009f578063e4128fb3146100b4578063f516b422146100f3575b600080fd5b6100646100fb565b60405161007393929190610521565b60405180910390f35b61008f61008a366004610602565b610247565b6040519015158152602001610073565b6100a7610440565b6040516100739190610666565b6100db7f000000000000000000000000000000000000000000000000000000000000000081565b6040516001600160a01b039091168152602001610073565b6100a76104ce565b60608060008060017f000000000000000000000000000000000000000000000000000000000000000082805461013090610680565b80601f016020809104026020016040519081016040528092919081815260200182805461015c90610680565b80156101a95780601f1061017e576101008083540402835291602001916101a9565b820191906000526020600020905b81548152906001019060200180831161018c57829003601f168201915b505050505092508180546101bc90610680565b80601f01602080910402602001604051908101604052809291908181526020018280546101e890610680565b80156102355780601f1061020a57610100808354040283529160200191610235565b820191906000526020600020905b81548152906001019060200180831161021857829003601f168201915b50505050509150925092509250909192565b6000336001600160a01b037f000000000000000000000000000000000000000000000000000000000000000016146102d85760405162461bcd60e51b815260206004820152602960248201527f4f6e6c792070726f66696c65206f776e65722063616e2063616c6c207468697360448201526810333ab731ba34b7b760b91b60648201526084015b60405180910390fd5b60008351116103295760405162461bcd60e51b815260206004820152601c60248201527f446973706c6179206e616d652063616e6e6f7420626520656d7074790000000060448201526064016102cf565b6032835111156103875760405162461bcd60e51b8152602060048201526024808201527f446973706c6179206e616d6520746f6f206c6f6e6720286d61782035302063686044820152636172732960e01b60648201526084016102cf565b6101f4825111156103da5760405162461bcd60e51b815260206004820152601c60248201527f42696f20746f6f206c6f6e6720286d617820353030206368617273290000000060448201526064016102cf565b60006103e68482610709565b5060016103f38382610709565b50336001600160a01b03167f6eb3a1c6a4675ba92d44e090515b1ceea358f26565d2854df0c99c3f5eaf9850848460405161042f9291906107c9565b60405180910390a250600192915050565b6000805461044d90610680565b80601f016020809104026020016040519081016040528092919081815260200182805461047990610680565b80156104c65780601f1061049b576101008083540402835291602001916104c6565b820191906000526020600020905b8154815290600101906020018083116104a957829003601f168201915b505050505081565b6001805461044d90610680565b6000815180845260005b81811015610501576020818501810151868301820152016104e5565b506000602082860101526020601f19601f83011685010191505092915050565b60608152600061053460608301866104db565b828103602084015261054681866104db565b91505060018060a01b0383166040830152949350505050565b634e487b7160e01b600052604160045260246000fd5b600082601f83011261058657600080fd5b813567ffffffffffffffff808211156105a1576105a161055f565b604051601f8301601f19908116603f011681019082821181831017156105c9576105c961055f565b816040528381528660208588010111156105e257600080fd5b836020870160208301376000602085830101528094505050505092915050565b6000806040838503121561061557600080fd5b823567ffffffffffffffff8082111561062d57600080fd5b61063986838701610575565b9350602085013591508082111561064f57600080fd5b5061065c85828601610575565b9150509250929050565b60208152600061067960208301846104db565b9392505050565b600181811c9082168061069457607f821691505b6020821081036106b457634e487b7160e01b600052602260045260246000fd5b50919050565b601f82111561070457600081815260208120601f850160051c810160208610156106e15750805b601f850160051c820191505b81811015610700578281556001016106ed565b5050505b505050565b815167ffffffffffffffff8111156107235761072361055f565b610737816107318454610680565b846106ba565b602080601f83116001811461076c57600084156107545750858301515b600019600386901b1c1916600185901b178555610700565b600085815260208120601f198616915b8281101561079b5788860151825594840194600190910190840161077c565b50858210156107b95787850151600019600388901b60f8161c191681555b5050505050600190811b01905550565b6040815260006107dc60408301856104db565b82810360208401526107ee81856104db565b9594505050505056fea2646970667358221220aa0c6b17bc5d9867a1f2c3d05e52c168f59b9e816f9dfc44631c47c0de6b190a64736f6c63430008140033",
  "linkReferences": {},
  "deployedLinkReferences": {}
}