{
  "_format": "hh-sol-artifact-1",
  "contractName": "DEDReputation",
  "sourceName": "src/DEDReputation.sol",
  "abi": [
    {
      "inputs": [],
      "stateMutability": "nonpayable",
      "type": "constructor"
    },
    {
      "inputs": [],
      "name": "AlreadyRated",
      "type": "error"
    },
    {
      "inputs": [],
      "name": "CannotRateSelf",
      "type": "error"
    },
    {
      "inputs": [],
      "name": "InvalidAddress",
      "type": "error"
    },
    {
      "inputs": [],
      "name": "InvalidReputationScore",
      "type": "error"
    },
    {
      "inputs": [],
      "name": "LessonNotCompleted",
      "type": "error"
    },
    {
      "inputs": [],
      "name": "SenderNotEducator",
      "type": "error"
    },
    {
      "inputs": [],
      "name": "SenderNotStudent",
      "type": "error"
    },
    {
      "anonymous": false,
      "inputs": [
        {
          "indexed": true,
          "internalType": "bytes32",
          "name": "lessonId",
          "type": "bytes32"
        },
        {
          "indexed": true,
          "internalType": "address",
          "name": "student",
          "type": "address"
        },
        {
          "indexed": true,
          "internalType": "address",
          "name": "educator",
          "type": "address"
        }
      ],
      "name": "LessonCompleted",
      "type": "event"
    },
    {
      "anonymous": false,
      "inputs": [
        {
          "indexed": true,
          "internalType": "bytes32",
          "name": "lessonId",
          "type": "bytes32"
        },
        {
          "indexed": true,
          "internalType": "address",
          "name": "participant",
          "type": "address"
        },
        {
          "indexed": false,
          "internalType": "bool",
          "name": "isEducator",
          "type": "bool"
        }
      ],
      "name": "ParticipantAdded",
      "type": "event"
    },
    {
      "anonymous": false,
      "inputs": [
        {
          "indexed": true,
          "internalType": "address",
          "name": "from",
          "type": "address"
        },
        {
          "indexed": true,
          "internalType": "address",
          "name": "to",
          "type": "address"
        },
        {
          "indexed": false,
          "internalType": "uint8",
          "name": "score",
          "type": "uint8"
        },
        {
          "indexed": true,
          "internalType": "bytes32",
          "name": "lessonId",
          "type": "bytes32"
        },
        {
          "indexed": false,
          "internalType": "bool",
          "name": "isEducatorRating",
          "type": "bool"
        }
      ],
      "name": "ReputationSubmitted",
      "type": "event"
    },
    {
      "inputs": [],
      "name": "MAX_SCORE",
      "outputs": [
        {
          "internalType": "uint8",
          "name": "",
          "type": "uint8"
        }
      ],
      "stateMutability": "view",
      "type": "function"
    },
    {
      "inputs": [],
      "name": "MIN_SCORE",
      "outputs": [
        {
          "internalType": "uint8",
          "name": "",
          "type": "uint8"
        }
      ],
      "stateMutability": "view",
      "type": "function"
    },
    {
      "inputs": [
        {
          "internalType": "bytes32",
          "name": "lessonId",
          "type": "bytes32"
        },
        {
          "internalType": "address",
          "name": "educator",
          "type": "address"
        }
      ],
      "name": "addEducatorToLesson",
      "outputs": [],
      "stateMutability": "nonpayable",
      "type": "function"
    },
    {
      "inputs": [
        {
          "internalType": "bytes32",
          "name": "lessonId",
          "type": "bytes32"
        },
        {
          "internalType": "address",
          "name": "student",
          "type": "address"
        }
      ],
      "name": "addStudentToLesson",
      "outputs": [],
      "stateMutability": "nonpayable",
      "type": "function"
    },
    {
      "inputs": [
        {
          "internalType": "bytes32",
          "name": "",
          "type": "bytes32"
        },
        {
          "internalType": "address",
          "name": "",
          "type": "address"
        }
      ],
      "name": "allowedEducators",
      "outputs": [
        {
          "internalType": "bool",
          "name": "",
          "type": "bool"
        }
      ],
      "stateMutability": "view",
      "type": "function"
    },
    {
      "inputs": [
        {
          "internalType": "bytes32",
          "name": "",
          "type": "bytes32"
        },
        {
          "internalType": "address",
          "name": "",
          "type": "address"
        }
      ],
      "name": "allowedStudents",
      "outputs": [
        {
          "internalType": "bool",
          "name": "",
          "type": "bool"
        }
      ],
      "stateMutability": "view",
      "type": "function"
    },
    {
      "inputs": [
        {
          "internalType": "address",
          "name": "",
          "type": "address"
        }
      ],
      "name": "educatorReputations",
      "outputs": [
        {
          "internalType": "uint256",
          "name": "totalScore",
          "type": "uint256"
        },
        {
          "internalType": "uint256",
          "name": "numberOfRatings",
          "type": "uint256"
        },
        {
          "internalType": "uint256",
          "name": "averageScore",
          "type": "uint256"
        }
      ],
      "stateMutability": "view",
      "type": "function"
    },
    {
      "inputs": [
        {
          "internalType": "address",
          "name": "educator",
          "type": "address"
        }
      ],
      "name": "getEducatorReputation",
      "outputs": [
        {
          "internalType": "uint256",
          "name": "totalScore",
          "type": "uint256"
        },
        {
          "internalType": "uint256",
          "name": "numberOfRatings",
          "type": "uint256"
        },
        {
          "internalType": "uint256",
          "name": "averageScore",
          "type": "uint256"
        }
      ],
      "stateMutability": "view",
      "type": "function"
    },
    {
      "inputs": [
        {
          "internalType": "address",
          "name": "student",
          "type": "address"
        }
      ],
      "name": "getStudentReputation",
      "outputs": [
        {
          "internalType": "uint256",
          "name": "totalScore",
          "type": "uint256"
        },
        {
          "internalType": "uint256",
          "name": "numberOfRatings",
          "type": "uint256"
        },
        {
          "internalType": "uint256",
          "name": "averageScore",
          "type": "uint256"
        }
      ],
      "stateMutability": "view",
      "type": "function"
    },
    {
      "inputs": [
        {
          "internalType": "bytes32",
          "name": "lessonId",
          "type": "bytes32"
        },
        {
          "internalType": "address",
          "name": "rater",
          "type": "address"
        },
        {
          "internalType": "address",
          "name": "ratee",
          "type": "address"
        },
        {
          "internalType": "bool",
          "name": "isEducatorRating",
          "type": "bool"
        }
      ],
      "name": "hasRated",
      "outputs": [
        {
          "internalType": "bool",
          "name": "",
          "type": "bool"
        }
      ],
      "stateMutability": "view",
      "type": "function"
    },
    {
      "inputs": [
        {
          "internalType": "bytes32",
          "name": "",
          "type": "bytes32"
        }
      ],
      "name": "lessonCompleted",
      "outputs": [
        {
          "internalType": "bool",
          "name": "",
          "type": "bool"
        }
      ],
      "stateMutability": "view",
      "type": "function"
    },
    {
      "inputs": [
        {
          "internalType": "bytes32",
          "name": "lessonId",
          "type": "bytes32"
        },
        {
          "internalType": "address",
          "name": "student",
          "type": "address"
        },
        {
          "internalType": "address",
          "name": "educator",
          "type": "address"
        }
      ],
      "name": "markLessonCompleted",
      "outputs": [],
      "stateMutability": "nonpayable",
      "type": "function"
    },
    {
      "inputs": [],
      "name": "owner",
      "outputs": [
        {
          "internalType": "address",
          "name": "",
          "type": "address"
        }
      ],
      "stateMutability": "view",
      "type": "function"
    },
    {
      "inputs": [
        {
          "internalType": "bytes32",
          "name": "lessonId",
          "type": "bytes32"
        },
        {
          "internalType": "address",
          "name": "educator",
          "type": "address"
        },
        {
          "internalType": "uint8",
          "name": "score",
          "type": "uint8"
        }
      ],
      "name": "rateEducator",
      "outputs": [],
      "stateMutability": "nonpayable",
      "type": "function"
    },
    {
      "inputs": [
        {
          "internalType": "bytes32",
          "name": "lessonId",
          "type": "bytes32"
        },
        {
          "internalType": "address",
          "name": "student",
          "type": "address"
        },
        {
          "internalType": "uint8",
          "name": "score",
          "type": "uint8"
        }
      ],
      "name": "rateStudent",
      "outputs": [],
      "stateMutability": "nonpayable",
      "type": "function"
    },
    {
      "inputs": [
        {
          "internalType": "address",
          "name": "",
          "type": "address"
        }
      ],
      "name": "studentReputations",
      "outputs": [
        {
          "internalType": "uint256",
          "name": "totalScore",
          "type": "uint256"
        },
        {
          "internalType": "uint256",
          "name": "numberOfRatings",
          "type": "uint256"
        },
        {
          "internalType": "uint256",
          "name": "averageScore",
          "type": "uint256"
        }
      ],
      "stateMutability": "view",
      "type": "function"
    }
  ],
  "bytecode": "0x60a060405234801561001057600080fd5b5033608052608051610e0361004560003960008181610223015281816103d8015281816109230152610a230152610e036000f3fe608060405234801561001057600080fd5b50600436106101005760003560e01c80638da5cb5b11610097578063d6348c8c11610066578063d6348c8c146102cc578063d6ceb9bd146102fa578063e7a7d9ea14610335578063f6d901eb1461034857600080fd5b80638da5cb5b1461021e5780639d7e75341461025d5780639f7493d21461028b578063c59680f2146102b957600080fd5b806340b89270116100d357806340b89270146101b257806341f8d5a1146101ba578063585e3717146101e85780636af619ed146101fb57600080fd5b806306aed2d91461010557806327ff62231461012d5780632c4851f7146101475780633765f7711461015c575b600080fd5b610118610113366004610c06565b61035b565b60405190151581526020015b60405180910390f35b610135600a81565b60405160ff9091168152602001610124565b61015a610155366004610c5a565b6103cd565b005b61019761016a366004610c86565b6001600160a01b031660009081526002602081905260409091208054600182015491909201549192909190565b60408051938452602084019290925290820152606001610124565b610135600181565b6101186101c8366004610c5a565b600360209081526000928352604080842090915290825290205460ff1681565b61015a6101f6366004610ca8565b6104db565b610118610209366004610cee565b60006020819052908152604090205460ff1681565b6102457f000000000000000000000000000000000000000000000000000000000000000081565b6040516001600160a01b039091168152602001610124565b61019761026b366004610c86565b600260208190526000918252604090912080546001820154919092015483565b610118610299366004610c5a565b600460209081526000928352604080842090915290825290205460ff1681565b61015a6102c7366004610ca8565b6106fe565b6101976102da366004610c86565b600160208190526000918252604090912080549181015460029091015483565b610197610308366004610c86565b6001600160a01b031660009081526001602081905260409091208054918101546002909101549192909190565b61015a610343366004610c5a565b610918565b61015a610356366004610d07565b610a18565b6000811561039657506001600160a01b038083166000908152600160209081526040808320938716835260039093019052205460ff166103c5565b506001600160a01b038083166000908152600260209081526040808320938716835260039093019052205460ff165b949350505050565b336001600160a01b037f0000000000000000000000000000000000000000000000000000000000000000161461041e5760405162461bcd60e51b815260040161041590610d43565b60405180910390fd5b6001600160a01b0381166104745760405162461bcd60e51b815260206004820152601760248201527f496e76616c69642073747564656e7420616464726573730000000000000000006044820152606401610415565b60008281526003602090815260408083206001600160a01b038516808552908352818420805460ff1916600117905590519283529184917f1d7160f167bd28835cbfd2ca0f0712abac57b2ead010b8c2e32021fb0a9333cb91015b60405180910390a35050565b600083815260036020908152604080832033845290915290205460ff16610515576040516341b46a4160e11b815260040160405180910390fd5b60008381526004602090815260408083206001600160a01b038616845290915290205460ff166105585760405163e6c4247b60e01b815260040160405180910390fd5b60008381526020819052604090205460ff166105875760405163e0d787cf60e01b815260040160405180910390fd5b600160ff8216108061059c5750600a60ff8216115b156105ba57604051631839676f60e21b815260040160405180910390fd5b6001600160a01b03821633036105e357604051633358511b60e01b815260040160405180910390fd5b6001600160a01b038216600090815260026020908152604080832033845260030190915290205460ff161561062b57604051630894b2e960e31b815260040160405180910390fd5b6001600160a01b03821660009081526002602052604081208054909160ff84169183919061065a908490610d84565b909155505060018181018054600090610674908490610d84565b90915550506001810154815461068a9190610dab565b60028201553360008181526003830160209081526040808320805460ff19166001179055805160ff871681529182019290925286926001600160a01b0387169290917f529174e358a9f7fdfdb3131342ce7443832d42d5f01563bee5b153de152156b291015b60405180910390a450505050565b600083815260046020908152604080832033845290915290205460ff166107385760405163d4c3442d60e01b815260040160405180910390fd5b60008381526003602090815260408083206001600160a01b038616845290915290205460ff1661077b5760405163e6c4247b60e01b815260040160405180910390fd5b60008381526020819052604090205460ff166107aa5760405163e0d787cf60e01b815260040160405180910390fd5b600160ff821610806107bf5750600a60ff8216115b156107dd57604051631839676f60e21b815260040160405180910390fd5b6001600160a01b038216330361080657604051633358511b60e01b815260040160405180910390fd5b6001600160a01b038216600090815260016020908152604080832033845260030190915290205460ff161561084e57604051630894b2e960e31b815260040160405180910390fd5b6001600160a01b03821660009081526001602052604081208054909160ff84169183919061087d908490610d84565b909155505060018181018054600090610897908490610d84565b9091555050600181015481546108ad9190610dab565b6002820155336000818152600383016020908152604091829020805460ff19166001908117909155825160ff871681529182015286926001600160a01b0387169290917f529174e358a9f7fdfdb3131342ce7443832d42d5f01563bee5b153de152156b291016106f0565b336001600160a01b037f000000000000000000000000000000000000000000000000000000000000000016146109605760405162461bcd60e51b815260040161041590610d43565b6001600160a01b0381166109b65760405162461bcd60e51b815260206004820152601860248201527f496e76616c6964206564756361746f72206164647265737300000000000000006044820152606401610415565b60008281526004602090815260408083206001600160a01b03851680855290835292819020805460ff19166001908117909155905190815284917f1d7160f167bd28835cbfd2ca0f0712abac57b2ead010b8c2e32021fb0a9333cb91016104cf565b336001600160a01b037f00000000000000000000000000000000000000000000000000000000000000001614610a605760405162461bcd60e51b815260040161041590610d43565b6001600160a01b03821615801590610a8057506001600160a01b03811615155b610ac05760405162461bcd60e51b8152602060048201526011602482015270496e76616c69642061646472657373657360781b6044820152606401610415565b60008381526003602090815260408083206001600160a01b038616845290915290205460ff16610b2a5760405162461bcd60e51b815260206004820152601560248201527429ba3ab232b73a103737ba1034b7103632b9b9b7b760591b6044820152606401610415565b60008381526004602090815260408083206001600160a01b038516845290915290205460ff16610b955760405162461bcd60e51b815260206004820152601660248201527522b23ab1b0ba37b9103737ba1034b7103632b9b9b7b760511b6044820152606401610415565b600083815260208190526040808220805460ff19166001179055516001600160a01b03808416929085169186917f8e7fda1aa5a123e3d610f227d4a6566d4c6cc98a270e74ff6369ea95bc1766be91a4505050565b80356001600160a01b0381168114610c0157600080fd5b919050565b60008060008060808587031215610c1c57600080fd5b84359350610c2c60208601610bea565b9250610c3a60408601610bea565b915060608501358015158114610c4f57600080fd5b939692955090935050565b60008060408385031215610c6d57600080fd5b82359150610c7d60208401610bea565b90509250929050565b600060208284031215610c9857600080fd5b610ca182610bea565b9392505050565b600080600060608486031215610cbd57600080fd5b83359250610ccd60208501610bea565b9150604084013560ff81168114610ce357600080fd5b809150509250925092565b600060208284031215610d0057600080fd5b5035919050565b600080600060608486031215610d1c57600080fd5b83359250610d2c60208501610bea565b9150610d3a60408501610bea565b90509250925092565b60208082526021908201527f4f6e6c79206f776e65722063616e2063616c6c20746869732066756e6374696f6040820152603760f91b606082015260800190565b80820180821115610da557634e487b7160e01b600052601160045260246000fd5b92915050565b600082610dc857634e487b7160e01b600052601260045260246000fd5b50049056fea2646970667358221220302a1279df102c10912f698c3f2f008a0fad28d9fd3e549ad9e5132ca046d60364736f6c63430008140033",
  "linkReferences": {},
  "deployedLinkReferences": {}
}