{
  "_format": "hh-sol-artifact-1",
  "contractName": "ListingBroker",
  "sourceName": "src/ListingBroker.sol",
  "abi": [
    {
      "inputs": [
        {
          "internalType": "address",
          "name": "_token",
          "type": "address"
        }
      ],
      "stateMutability": "nonpayable",
      "type": "constructor"
    },
    {
      "inputs": [],
      "name": "AccountNoListings",
      "type": "error"
    },
    {
      "inputs": [],
      "name": "ApplicationNotFound",
      "type": "error"
    },
    {
      "inputs": [],
      "name": "EmptyDescription",
      "type": "error"
    },
    {
      "inputs": [],
      "name": "EmptyObjectives",
      "type": "error"
    },
    {
      "inputs": [],
      "name": "IndexOutOfBounds",
      "type": "error"
    },
    {
      "inputs": [],
      "name": "InvalidAddress",
      "type": "error"
    },
    {
      "inputs": [],
      "name": "InvalidBarterAmount",
      "type": "error"
    },
    {
      "inputs": [],
      "name": "InvalidTokenAmount",
      "type": "error"
    },
    {
      "inputs": [],
      "name": "ListingNotFound",
      "type": "error"
    },
    {
      "inputs": [],
      "name": "NotAuthorized",
      "type": "error"
    },
    {
      "inputs": [],
      "name": "NotEnoughTokenApproved",
      "type": "error"
    },
    {
      "inputs": [],
      "name": "Reentrancy",
      "type": "error"
    },
    {
      "anonymous": false,
      "inputs": [
        {
          "indexed": true,
          "internalType": "bytes32",
          "name": "listingId",
          "type": "bytes32"
        },
        {
          "indexed": true,
          "internalType": "address",
          "name": "educator",
          "type": "address"
        },
        {
          "indexed": false,
          "internalType": "bool",
          "name": "accepted",
          "type": "bool"
        },
        {
          "indexed": false,
          "internalType": "uint256",
          "name": "finalAmount",
          "type": "uint256"
        }
      ],
      "name": "ApplicationResponse",
      "type": "event"
    },
    {
      "anonymous": false,
      "inputs": [
        {
          "indexed": true,
          "internalType": "bytes32",
          "name": "listingId",
          "type": "bytes32"
        },
        {
          "indexed": true,
          "internalType": "address",
          "name": "educator",
          "type": "address"
        },
        {
          "indexed": false,
          "internalType": "uint256",
          "name": "barterAmount",
          "type": "uint256"
        },
        {
          "indexed": false,
          "internalType": "string",
          "name": "message",
          "type": "string"
        }
      ],
      "name": "EducatorApplication",
      "type": "event"
    },
    {
      "anonymous": false,
      "inputs": [
        {
          "indexed": true,
          "internalType": "bytes32",
          "name": "listingId",
          "type": "bytes32"
        },
        {
          "indexed": true,
          "internalType": "address",
          "name": "student",
          "type": "address"
        },
        {
          "indexed": true,
          "internalType": "address",
          "name": "educator",
          "type": "address"
        },
        {
          "indexed": false,
          "internalType": "uint256",
          "name": "finalAmount",
          "type": "uint256"
        }
      ],
      "name": "ListingFinalized",
      "type": "event"
    },
    {
      "anonymous": false,
      "inputs": [
        {
          "indexed": false,
          "internalType": "uint256",
          "name": "minAmount",
          "type": "uint256"
        },
        {
          "indexed": false,
          "internalType": "uint256",
          "name": "maxAmount",
          "type": "uint256"
        }
      ],
      "name": "ListingLimitsUpdated",
      "type": "event"
    },
    {
      "anonymous": false,
      "inputs": [
        {
          "indexed": true,
          "internalType": "bytes32",
          "name": "listingId",
          "type": "bytes32"
        },
        {
          "indexed": true,
          "internalType": "address",
          "name": "student",
          "type": "address"
        },
        {
          "indexed": false,
          "internalType": "uint256",
          "name": "amount",
          "type": "uint256"
        },
        {
          "indexed": true,
          "internalType": "bytes32",
          "name": "subject",
          "type": "bytes32"
        },
        {
          "indexed": false,
          "internalType": "bytes32",
          "name": "topic",
          "type": "bytes32"
        }
      ],
      "name": "ListingSubmitted",
      "type": "event"
    },
    {
      "anonymous": false,
      "inputs": [
        {
          "indexed": false,
          "internalType": "uint256",
          "name": "oldFee",
          "type": "uint256"
        },
        {
          "indexed": false,
          "internalType": "uint256",
          "name": "newFee",
          "type": "uint256"
        }
      ],
      "name": "PlatformFeeUpdated",
      "type": "event"
    },
    {
      "inputs": [
        {
          "internalType": "bytes32",
          "name": "",
          "type": "bytes32"
        }
      ],
      "name": "activeListings",
      "outputs": [
        {
          "internalType": "bool",
          "name": "",
          "type": "bool"
        }
      ],
      "stateMutability": "view",
      "type": "function"
    },
    {
      "inputs": [
        {
          "internalType": "bytes32",
          "name": "",
          "type": "bytes32"
        },
        {
          "internalType": "uint256",
          "name": "",
          "type": "uint256"
        }
      ],
      "name": "applications",
      "outputs": [
        {
          "internalType": "address",
          "name": "educator",
          "type": "address"
        },
        {
          "internalType": "uint256",
          "name": "barterAmount",
          "type": "uint256"
        },
        {
          "internalType": "string",
          "name": "message",
          "type": "string"
        },
        {
          "internalType": "uint256",
          "name": "timestamp",
          "type": "uint256"
        },
        {
          "internalType": "bool",
          "name": "isActive",
          "type": "bool"
        }
      ],
      "stateMutability": "view",
      "type": "function"
    },
    {
      "inputs": [
        {
          "internalType": "bytes32",
          "name": "listingId",
          "type": "bytes32"
        },
        {
          "internalType": "uint256",
          "name": "barterAmount",
          "type": "uint256"
        },
        {
          "internalType": "string",
          "name": "message",
          "type": "string"
        }
      ],
      "name": "applyToListing",
      "outputs": [],
      "stateMutability": "nonpayable",
      "type": "function"
    },
    {
      "inputs": [
        {
          "internalType": "bytes32",
          "name": "listingId",
          "type": "bytes32"
        }
      ],
      "name": "emergencyCancelListing",
      "outputs": [],
      "stateMutability": "nonpayable",
      "type": "function"
    },
    {
      "inputs": [
        {
          "internalType": "bytes32",
          "name": "listingId",
          "type": "bytes32"
        }
      ],
      "name": "getApplicationCount",
      "outputs": [
        {
          "internalType": "uint256",
          "name": "",
          "type": "uint256"
        }
      ],
      "stateMutability": "view",
      "type": "function"
    },
    {
      "inputs": [
        {
          "internalType": "bytes32",
          "name": "listingId",
          "type": "bytes32"
        }
      ],
      "name": "getApplications",
      "outputs": [
        {
          "components": [
            {
              "internalType": "address",
              "name": "educator",
              "type": "address"
            },
            {
              "internalType": "uint256",
              "name": "barterAmount",
              "type": "uint256"
            },
            {
              "internalType": "string",
              "name": "message",
              "type": "string"
            },
            {
              "internalType": "uint256",
              "name": "timestamp",
              "type": "uint256"
            },
            {
              "internalType": "bool",
              "name": "isActive",
              "type": "bool"
            }
          ],
          "internalType": "struct ListingBroker.Application[]",
          "name": "",
          "type": "tuple[]"
        }
      ],
      "stateMutability": "view",
      "type": "function"
    },
    {
      "inputs": [
        {
          "internalType": "address",
          "name": "user",
          "type": "address"
        }
      ],
      "name": "getListingCount",
      "outputs": [
        {
          "internalType": "uint256",
          "name": "",
          "type": "uint256"
        }
      ],
      "stateMutability": "view",
      "type": "function"
    },
    {
      "inputs": [],
      "name": "getListingCreators",
      "outputs": [
        {
          "internalType": "address[]",
          "name": "",
          "type": "address[]"
        }
      ],
      "stateMutability": "view",
      "type": "function"
    },
    {
      "inputs": [
        {
          "internalType": "address",
          "name": "user",
          "type": "address"
        }
      ],
      "name": "getListings",
      "outputs": [
        {
          "components": [
            {
              "internalType": "bytes32",
              "name": "listingId",
              "type": "bytes32"
            },
            {
              "internalType": "address",
              "name": "student",
              "type": "address"
            },
            {
              "internalType": "uint256",
              "name": "amount",
              "type": "uint256"
            },
            {
              "internalType": "bytes32",
              "name": "subject",
              "type": "bytes32"
            },
            {
              "internalType": "bytes32",
              "name": "topic",
              "type": "bytes32"
            },
            {
              "internalType": "string",
              "name": "description",
              "type": "string"
            },
            {
              "internalType": "string",
              "name": "objectives",
              "type": "string"
            },
            {
              "internalType": "uint256",
              "name": "timestamp",
              "type": "uint256"
            },
            {
              "internalType": "bool",
              "name": "isActive",
              "type": "bool"
            },
            {
              "internalType": "address",
              "name": "selectedEducator",
              "type": "address"
            },
            {
              "internalType": "uint256",
              "name": "finalAmount",
              "type": "uint256"
            }
          ],
          "internalType": "struct ListingBroker.Listing[]",
          "name": "",
          "type": "tuple[]"
        }
      ],
      "stateMutability": "view",
      "type": "function"
    },
    {
      "inputs": [],
      "name": "getPlatformStats",
      "outputs": [
        {
          "internalType": "uint256",
          "name": "totalListingsCount",
          "type": "uint256"
        },
        {
          "internalType": "uint256",
          "name": "totalFees",
          "type": "uint256"
        },
        {
          "internalType": "uint256",
          "name": "activeListingsCount",
          "type": "uint256"
        },
        {
          "internalType": "uint256",
          "name": "totalCreators",
          "type": "uint256"
        }
      ],
      "stateMutability": "view",
      "type": "function"
    },
    {
      "inputs": [
        {
          "internalType": "address",
          "name": "",
          "type": "address"
        }
      ],
      "name": "hasListings",
      "outputs": [
        {
          "internalType": "bool",
          "name": "",
          "type": "bool"
        }
      ],
      "stateMutability": "view",
      "type": "function"
    },
    {
      "inputs": [
        {
          "internalType": "uint256",
          "name": "",
          "type": "uint256"
        }
      ],
      "name": "listingCreators",
      "outputs": [
        {
          "internalType": "address",
          "name": "",
          "type": "address"
        }
      ],
      "stateMutability": "view",
      "type": "function"
    },
    {
      "inputs": [
        {
          "internalType": "address",
          "name": "",
          "type": "address"
        },
        {
          "internalType": "uint256",
          "name": "",
          "type": "uint256"
        }
      ],
      "name": "listings",
      "outputs": [
        {
          "internalType": "bytes32",
          "name": "listingId",
          "type": "bytes32"
        },
        {
          "internalType": "address",
          "name": "student",
          "type": "address"
        },
        {
          "internalType": "uint256",
          "name": "amount",
          "type": "uint256"
        },
        {
          "internalType": "bytes32",
          "name": "subject",
          "type": "bytes32"
        },
        {
          "internalType": "bytes32",
          "name": "topic",
          "type": "bytes32"
        },
        {
          "internalType": "string",
          "name": "description",
          "type": "string"
        },
        {
          "internalType": "string",
          "name": "objectives",
          "type": "string"
        },
        {
          "internalType": "uint256",
          "name": "timestamp",
          "type": "uint256"
        },
        {
          "internalType": "bool",
          "name": "isActive",
          "type": "bool"
        },
        {
          "internalType": "address",
          "name": "selectedEducator",
          "type": "address"
        },
        {
          "internalType": "uint256",
          "name": "finalAmount",
          "type": "uint256"
        }
      ],
      "stateMutability": "view",
      "type": "function"
    },
    {
      "inputs": [],
      "name": "maxListingAmount",
      "outputs": [
        {
          "internalType": "uint256",
          "name": "",
          "type": "uint256"
        }
      ],
      "stateMutability": "view",
      "type": "function"
    },
    {
      "inputs": [],
      "name": "minListingAmount",
      "outputs": [
        {
          "internalType": "uint256",
          "name": "",
          "type": "uint256"
        }
      ],
      "stateMutability": "view",
      "type": "function"
    },
    {
      "inputs": [],
      "name": "owner",
      "outputs": [
        {
          "internalType": "address",
          "name": "",
          "type": "address"
        }
      ],
      "stateMutability": "view",
      "type": "function"
    },
    {
      "inputs": [],
      "name": "platformFeeBps",
      "outputs": [
        {
          "internalType": "uint256",
          "name": "",
          "type": "uint256"
        }
      ],
      "stateMutability": "view",
      "type": "function"
    },
    {
      "inputs": [
        {
          "internalType": "bytes32",
          "name": "listingId",
          "type": "bytes32"
        },
        {
          "internalType": "uint256",
          "name": "educatorIndex",
          "type": "uint256"
        },
        {
          "internalType": "bool",
          "name": "accepted",
          "type": "bool"
        },
        {
          "internalType": "uint256",
          "name": "finalAmount",
          "type": "uint256"
        }
      ],
      "name": "respondToApplication",
      "outputs": [],
      "stateMutability": "nonpayable",
      "type": "function"
    },
    {
      "inputs": [
        {
          "internalType": "bytes32",
          "name": "subject",
          "type": "bytes32"
        },
        {
          "internalType": "bytes32",
          "name": "topic",
          "type": "bytes32"
        },
        {
          "internalType": "string",
          "name": "description",
          "type": "string"
        },
        {
          "internalType": "string",
          "name": "objectives",
          "type": "string"
        },
        {
          "internalType": "uint256",
          "name": "amount",
          "type": "uint256"
        }
      ],
      "name": "submitListing",
      "outputs": [],
      "stateMutability": "nonpayable",
      "type": "function"
    },
    {
      "inputs": [],
      "name": "token",
      "outputs": [
        {
          "internalType": "contract ERC20",
          "name": "",
          "type": "address"
        }
      ],
      "stateMutability": "view",
      "type": "function"
    },
    {
      "inputs": [],
      "name": "totalFeesCollected",
      "outputs": [
        {
          "internalType": "uint256",
          "name": "",
          "type": "uint256"
        }
      ],
      "stateMutability": "view",
      "type": "function"
    },
    {
      "inputs": [],
      "name": "totalListings",
      "outputs": [
        {
          "internalType": "uint256",
          "name": "",
          "type": "uint256"
        }
      ],
      "stateMutability": "view",
      "type": "function"
    },
    {
      "inputs": [
        {
          "internalType": "uint256",
          "name": "newMinAmount",
          "type": "uint256"
        },
        {
          "internalType": "uint256",
          "name": "newMaxAmount",
          "type": "uint256"
        }
      ],
      "name": "updateListingLimits",
      "outputs": [],
      "stateMutability": "nonpayable",
      "type": "function"
    },
    {
      "inputs": [
        {
          "internalType": "uint256",
          "name": "newFeeBps",
          "type": "uint256"
        }
      ],
      "name": "updatePlatformFee",
      "outputs": [],
      "stateMutability": "nonpayable",
      "type": "function"
    },
    {
      "inputs": [
        {
          "internalType": "uint256",
          "name": "amount",
          "type": "uint256"
        }
      ],
      "name": "withdrawFees",
      "outputs": [],
      "stateMutability": "nonpayable",
      "type": "function"
    }
  ],
  "bytecode": "0x60c060405260fa600055670de0b6b3a764000060015569021e19e0c9bab24000006002553480156200003057600080fd5b50604051620021fe380380620021fe8339810160408190526200005391620000c4565b6001600160a01b038116620000ae5760405162461bcd60e51b815260206004820152601560248201527f496e76616c696420746f6b656e20616464726573730000000000000000000000604482015260640160405180910390fd5b6001600160a01b03166080523360a052620000f6565b600060208284031215620000d757600080fd5b81516001600160a01b0381168114620000ef57600080fd5b9392505050565b60805160a0516120aa62000154600039600081816102e4015281816105d1015281816108af0152818161096001528181610f8501526110640152600081816103fa015281816106db0152818161098f0152610b0c01526120aa6000f3fe608060405234801561001057600080fd5b50600436106101725760003560e01c80637ecfbe08116100de578063be7ec88b11610097578063db76b00611610071578063db76b006146103be578063e9ee0acc146103e2578063fc0c546a146103f5578063ffeec2971461041c57600080fd5b8063be7ec88b14610382578063c78b616c14610395578063cde8cd6e1461039e57600080fd5b80637ecfbe08146102bf5780638da5cb5b146102df578063a01abf7914610306578063aa0b598814610319578063ac221bca1461032c578063b67fbe631461035f57600080fd5b80635e318e07116101305780635e318e071461023c57806360c6d8ae1461024f5780637000823d1461025857806374f158a91461027857806376198ccd1461028b5780637b5b28b1146102b657600080fd5b806207df30146101775780630989f26c146101aa57806311dd267a146101bf578063136d8883146101d457806322dcd13e146101fc578063442b92c014610213575b600080fd5b61018a6101853660046118d0565b610425565b6040516101a19b9a99989796959493929190611940565b60405180910390f35b6101bd6101b83660046119bc565b6105c6565b005b6101c761074f565b6040516101a191906119d5565b6101dc6107b1565b6040805194855260208501939093529183015260608201526080016101a1565b61020560005481565b6040519081526020016101a1565b610205610221366004611a22565b6001600160a01b031660009081526003602052604090205490565b6101bd61024a3660046119bc565b6108a4565b61020560095481565b6102056102663660046119bc565b60009081526006602052604090205490565b6101bd610286366004611ae7565b610a00565b61029e6102993660046119bc565b610e0d565b6040516001600160a01b0390911681526020016101a1565b61020560015481565b6102d26102cd3660046119bc565b610e37565b6040516101a19190611b66565b61029e7f000000000000000000000000000000000000000000000000000000000000000081565b6101bd610314366004611c08565b610f7a565b6101bd6103273660046119bc565b611059565b61034f61033a3660046119bc565b60076020526000908152604090205460ff1681565b60405190151581526020016101a1565b61034f61036d366004611a22565b60056020526000908152604090205460ff1681565b6101bd610390366004611c3b565b611129565b61020560085481565b6103b16103ac366004611a22565b611327565b6040516101a19190611c7a565b6103d16103cc366004611c08565b611532565b6040516101a1959493929190611d72565b6101bd6103f0366004611db2565b611618565b61029e7f000000000000000000000000000000000000000000000000000000000000000081565b61020560025481565b6003602052816000526040600020818154811061044157600080fd5b60009182526020909120600a90910201805460018201546002830154600384015460048501546005860180549598506001600160a01b039094169650919490939192909161048e90611e02565b80601f01602080910402602001604051908101604052809291908181526020018280546104ba90611e02565b80156105075780601f106104dc57610100808354040283529160200191610507565b820191906000526020600020905b8154815290600101906020018083116104ea57829003601f168201915b50505050509080600601805461051c90611e02565b80601f016020809104026020016040519081016040528092919081815260200182805461054890611e02565b80156105955780601f1061056a57610100808354040283529160200191610595565b820191906000526020600020905b81548152906001019060200180831161057857829003601f168201915b50505050600783015460088401546009909401549293909260ff821692506101009091046001600160a01b0316908b565b336001600160a01b037f000000000000000000000000000000000000000000000000000000000000000016146106175760405162461bcd60e51b815260040161060e90611e3c565b60405180910390fd5b60008181526007602052604090205460ff1661064657604051630fc87cc760e31b815260040160405180910390fd5b600061065182611793565b60088101805460ff19908116909155600084815260076020526040812080549092169091558054600283015492935090916127109161068f91611e93565b6106999190611eb0565b905060008183600201546106ad9190611ed2565b600184015460405163a9059cbb60e01b81526001600160a01b039182166004820152602481018390529192507f0000000000000000000000000000000000000000000000000000000000000000169063a9059cbb906044016020604051808303816000875af1158015610724573d6000803e3d6000fd5b505050506040513d601f19601f820116820180604052508101906107489190611ee5565b5050505050565b606060048054806020026020016040519081016040528092919081815260200182805480156107a757602002820191906000526020600020905b81546001600160a01b03168152600190910190602001808311610789575b5050505050905090565b6000806000806000805b60045481101561088c576000600482815481106107da576107da611f02565b60009182526020822001546001600160a01b031691505b6001600160a01b038216600090815260036020526040902054811015610877576001600160a01b038216600090815260036020526040902080548290811061083b5761083b611f02565b600091825260209091206008600a90920201015460ff1615610865578361086181611f18565b9450505b8061086f81611f18565b9150506107f1565b5050808061088490611f18565b9150506107bb565b50600854600954600454919790965091945092509050565b336001600160a01b037f000000000000000000000000000000000000000000000000000000000000000016146108ec5760405162461bcd60e51b815260040161060e90611e3c565b6009548111156109325760405162461bcd60e51b8152602060048201526011602482015270496e73756666696369656e74206665657360781b604482015260640161060e565b80600960008282546109449190611ed2565b909155505060405163a9059cbb60e01b81526001600160a01b037f000000000000000000000000000000000000000000000000000000000000000081166004830152602482018390527f0000000000000000000000000000000000000000000000000000000000000000169063a9059cbb906044016020604051808303816000875af11580156109d8573d6000803e3d6000fd5b505050506040513d601f19601f820116820180604052508101906109fc9190611ee5565b5050565b3068929eee149b4bd212685403610a1f5763ab143c066000526004601cfd5b3068929eee149b4bd212685533610a495760405163e6c4247b60e01b815260040160405180910390fd5b600154811080610a5a575060025481115b15610a7857604051632160733960e01b815260040160405180910390fd5b8251600003610a9a5760405163d937d5df60e01b815260040160405180910390fd5b8151600003610abc5760405163ac9b8c4760e01b815260040160405180910390fd5b600061271060005483610acf9190611e93565b610ad99190611eb0565b90506000610ae78284611ed2565b6040516323b872dd60e01b8152336004820152306024820152604481018590529091507f00000000000000000000000000000000000000000000000000000000000000006001600160a01b0316906323b872dd906064016020604051808303816000875af1158015610b5d573d6000803e3d6000fd5b505050506040513d601f19601f82011682018060405250810190610b819190611ee5565b506008546040516bffffffffffffffffffffffff193360601b166020820152426034820152605481019190915260009060740160408051808303601f19018152828252805160209182012061016084018352808452338285018181528585018a8152606087018f8152608088018f815260a089018f815260c08a018f90524260e08b015260016101008b0181905260006101208c018190526101408c018190529687526003808a5299872080548083018255908852989096208a51600a90990201978855935194870180546001600160a01b0319166001600160a01b0390961695909517909455905160028601555194840194909455516004830155915191935082916005820190610c939082611f80565b5060c08201516006820190610ca89082611f80565b5060e08201516007820155610100808301516008830180546101208601516001600160a81b0319909116921515610100600160a81b031916929092176001600160a01b03909216909202179055610140909101516009909101553360009081526005602052604090205460ff16610d74576004805460018181019092557f8a35acfbc15ff81a39ae7d344fd709f28e8600b4aa8c65c6b64bfe7fe36bd19b0180546001600160a01b031916339081179091556000908152600560205260409020805460ff191690911790555b6000828152600760205260408120805460ff191660011790556008805491610d9b83611f18565b91905055508360096000828254610db29190612040565b909155505060408051868152602081018a90528a91339185917f0dec67091eb73e57e3e6dc92e575fb9882c46703a3068601cc3444c9200ed7fb910160405180910390a4505050503868929eee149b4bd21268555050505050565b60048181548110610e1d57600080fd5b6000918252602090912001546001600160a01b0316905081565b606060066000838152602001908152602001600020805480602002602001604051908101604052809291908181526020016000905b82821015610f6f5760008481526020908190206040805160a0810182526005860290920180546001600160a01b0316835260018101549383019390935260028301805492939291840191610ebf90611e02565b80601f0160208091040260200160405190810160405280929190818152602001828054610eeb90611e02565b8015610f385780601f10610f0d57610100808354040283529160200191610f38565b820191906000526020600020905b815481529060010190602001808311610f1b57829003601f168201915b5050509183525050600382015460208083019190915260049092015460ff1615156040909101529082526001929092019101610e6c565b505050509050919050565b336001600160a01b037f00000000000000000000000000000000000000000000000000000000000000001614610fc25760405162461bcd60e51b815260040161060e90611e3c565b8082106110115760405162461bcd60e51b815260206004820152601960248201527f4d696e206d757374206265206c657373207468616e206d617800000000000000604482015260640161060e565b6001829055600281905560408051838152602081018390527fc1bb8ae38f608784e83e8ef949308db30e7c2db67211cf9046ece3b962f8cc6691015b60405180910390a15050565b336001600160a01b037f000000000000000000000000000000000000000000000000000000000000000016146110a15760405162461bcd60e51b815260040161060e90611e3c565b6103e88111156110eb5760405162461bcd60e51b81526020600482015260156024820152744665652063616e6e6f74206578636565642031302560581b604482015260640161060e565b600080549082905560408051828152602081018490527fd347e206f25a89b917fc9482f1a2d294d749baa4dc9bde7fb495ee11fe491643910161104d565b60008481526007602052604090205460ff1661115857604051630fc87cc760e31b815260040160405180910390fd5b600061116385611793565b60018101549091506001600160a01b031633146111935760405163ea8e4eb560e01b815260040160405180910390fd5b6000858152600660205260409020805485106111c257604051634e23d03560e01b815260040160405180910390fd5b60008186815481106111d6576111d6611f02565b60009182526020909120600590910201600481015490915060ff1661120e57604051630bd94e9760e11b815260040160405180910390fd5b84156112c75783600003611235576040516393f093e360e01b815260040160405180910390fd5b8054600884018054600986018790556001600160a81b0319166101006001600160a01b039384160260ff199081169190911790915560008981526007602090815260409182902080549093169092558354600187015491518881529084169391909116918a917f497f5056c52cc228b234695a59d21c15bab60c5412bd62f28d9bf2e8f0c6923d910160405180910390a45b60048101805460ff191690558054604080518715158152602081018790526001600160a01b039092169189917ffcbeabcad672099cf085b749c8d83271dd6040fdd51a04b9d1c7aa63eb7a6ed4910160405180910390a350505050505050565b6001600160a01b0381166000908152600360209081526040808320805482518185028101850190935280835260609492939192909184015b82821015610f6f5760008481526020908190206040805161016081018252600a86029092018054835260018101546001600160a01b031693830193909352600283015490820152600382015460608201526004820154608082015260058201805491929160a0840191906113d290611e02565b80601f01602080910402602001604051908101604052809291908181526020018280546113fe90611e02565b801561144b5780601f106114205761010080835404028352916020019161144b565b820191906000526020600020905b81548152906001019060200180831161142e57829003601f168201915b5050505050815260200160068201805461146490611e02565b80601f016020809104026020016040519081016040528092919081815260200182805461149090611e02565b80156114dd5780601f106114b2576101008083540402835291602001916114dd565b820191906000526020600020905b8154815290600101906020018083116114c057829003601f168201915b50505091835250506007820154602080830191909152600883015460ff81161515604084015261010090046001600160a01b03166060830152600990920154608090910152908252600192909201910161135f565b6006602052816000526040600020818154811061154e57600080fd5b60009182526020909120600590910201805460018201546002830180546001600160a01b0390931695509093509061158590611e02565b80601f01602080910402602001604051908101604052809291908181526020018280546115b190611e02565b80156115fe5780601f106115d3576101008083540402835291602001916115fe565b820191906000526020600020905b8154815290600101906020018083116115e157829003601f168201915b50505050600383015460049093015491929160ff16905085565b60008381526007602052604090205460ff1661164757604051630fc87cc760e31b815260040160405180910390fd5b336116655760405163e6c4247b60e01b815260040160405180910390fd5b600061167084611793565b6001810154909150336001600160a01b03909116036116a25760405163ea8e4eb560e01b815260040160405180910390fd5b6040805160a081018252338152602080820186815282840186815242606085015260016080850181905260008a8152600685529586208054808301825590875293909520845160059094020180546001600160a01b0319166001600160a01b0390941693909317835590519382019390935591519091829160028201906117299082611f80565b50606082015160038201556080909101516004909101805460ff1916911515919091179055604051339086907fa9a7b0fda5054d85618417bceca050a1a573e27476d5c2c6436f5d4189065118906117849088908890612053565b60405180910390a35050505050565b6000805b60045481101561189a576000600482815481106117b6576117b6611f02565b60009182526020822001546001600160a01b031691505b6001600160a01b038216600090815260036020526040902054811015611885576001600160a01b038216600090815260036020526040902080548691908390811061181a5761181a611f02565b90600052602060002090600a02016000015403611873576001600160a01b038216600090815260036020526040902080548290811061185b5761185b611f02565b90600052602060002090600a02019350505050919050565b8061187d81611f18565b9150506117cd565b5050808061189290611f18565b915050611797565b50604051630fc87cc760e31b815260040160405180910390fd5b80356001600160a01b03811681146118cb57600080fd5b919050565b600080604083850312156118e357600080fd5b6118ec836118b4565b946020939093013593505050565b6000815180845260005b8181101561192057602081850181015186830182015201611904565b506000602082860101526020601f19601f83011685010191505092915050565b60006101608d835260018060a01b03808e1660208501528c60408501528b60608501528a60808501528160a085015261197b8285018b6118fa565b915083820360c085015261198f828a6118fa565b60e08501989098529515156101008401525050919092166101208201526101400152979650505050505050565b6000602082840312156119ce57600080fd5b5035919050565b6020808252825182820181905260009190848201906040850190845b81811015611a165783516001600160a01b0316835292840192918401916001016119f1565b50909695505050505050565b600060208284031215611a3457600080fd5b611a3d826118b4565b9392505050565b634e487b7160e01b600052604160045260246000fd5b600082601f830112611a6b57600080fd5b813567ffffffffffffffff80821115611a8657611a86611a44565b604051601f8301601f19908116603f01168101908282118183101715611aae57611aae611a44565b81604052838152866020858801011115611ac757600080fd5b836020870160208301376000602085830101528094505050505092915050565b600080600080600060a08688031215611aff57600080fd5b8535945060208601359350604086013567ffffffffffffffff80821115611b2557600080fd5b611b3189838a01611a5a565b94506060880135915080821115611b4757600080fd5b50611b5488828901611a5a565b95989497509295608001359392505050565b60006020808301818452808551808352604092508286019150828160051b87010184880160005b83811015611bfa57888303603f19018552815180516001600160a01b0316845287810151888501528681015160a088860181905290611bce828701826118fa565b606084810151908801526080938401511515939096019290925250509386019390860190600101611b8d565b509098975050505050505050565b60008060408385031215611c1b57600080fd5b50508035926020909101359150565b8015158114611c3857600080fd5b50565b60008060008060808587031215611c5157600080fd5b84359350602085013592506040850135611c6a81611c2a565b9396929550929360600135925050565b60006020808301818452808551808352604092508286019150828160051b87010184880160005b83811015611bfa57603f19898403018552815180518452878101516001600160a01b0316888501528681015187850152606080820151908501526080808201519085015260a0808201516101608287018190529190611d02838801826118fa565b9250505060c08083015186830382880152611d1d83826118fa565b9250505060e080830151818701525061010080830151611d408288018215159052565b5050610120828101516001600160a01b0316908601526101409182015191909401529386019390860190600101611ca1565b60018060a01b038616815284602082015260a060408201526000611d9960a08301866118fa565b6060830194909452509015156080909101529392505050565b600080600060608486031215611dc757600080fd5b8335925060208401359150604084013567ffffffffffffffff811115611dec57600080fd5b611df886828701611a5a565b9150509250925092565b600181811c90821680611e1657607f821691505b602082108103611e3657634e487b7160e01b600052602260045260246000fd5b50919050565b60208082526021908201527f4f6e6c79206f776e65722063616e2063616c6c20746869732066756e6374696f6040820152603760f91b606082015260800190565b634e487b7160e01b600052601160045260246000fd5b8082028115828204841417611eaa57611eaa611e7d565b92915050565b600082611ecd57634e487b7160e01b600052601260045260246000fd5b500490565b81810381811115611eaa57611eaa611e7d565b600060208284031215611ef757600080fd5b8151611a3d81611c2a565b634e487b7160e01b600052603260045260246000fd5b600060018201611f2a57611f2a611e7d565b5060010190565b601f821115611f7b57600081815260208120601f850160051c81016020861015611f585750805b601f850160051c820191505b81811015611f7757828155600101611f64565b5050505b505050565b815167ffffffffffffffff811115611f9a57611f9a611a44565b611fae81611fa88454611e02565b84611f31565b602080601f831160018114611fe35760008415611fcb5750858301515b600019600386901b1c1916600185901b178555611f77565b600085815260208120601f198616915b8281101561201257888601518255948401946001909101908401611ff3565b50858210156120305787850151600019600388901b60f8161c191681555b5050505050600190811b01905550565b80820180821115611eaa57611eaa611e7d565b82815260406020820152600061206c60408301846118fa565b94935050505056fea2646970667358221220c764072fe8463c34a5c15fab3cbb231ef36eb92d6d3fc162af950b2b73008c9e64736f6c63430008140033",
  "linkReferences": {},
  "deployedLinkReferences": {}
}