{
  "_format": "hh-sol-artifact-1",
  "contractName": "PaymentSplitter",
  "sourceName": "src/PaymentSplitter.sol",
  "abi": [
    {
      "inputs": [
        {
          "internalType": "address[]",
          "name": "payees",
          "type": "address[]"
        },
        {
          "internalType": "uint256[]",
          "name": "shares_",
          "type": "uint256[]"
        }
      ],
      "stateMutability": "nonpayable",
      "type": "constructor"
    },
    {
      "inputs": [],
      "name": "Reentrancy",
      "type": "error"
    },
    {
      "anonymous": false,
      "inputs": [
        {
          "indexed": false,
          "internalType": "address",
          "name": "account",
          "type": "address"
        },
        {
          "indexed": false,
          "internalType": "uint256",
          "name": "shares",
          "type": "uint256"
        }
      ],
      "name": "PayeeAdded",
      "type": "event"
    },
    {
      "anonymous": false,
      "inputs": [
        {
          "indexed": false,
          "internalType": "address",
          "name": "from",
          "type": "address"
        },
        {
          "indexed": false,
          "internalType": "uint256",
          "name": "amount",
          "type": "uint256"
        }
      ],
      "name": "PaymentReceived",
      "type": "event"
    },
    {
      "anonymous": false,
      "inputs": [
        {
          "indexed": false,
          "internalType": "address",
          "name": "to",
          "type": "address"
        },
        {
          "indexed": false,
          "internalType": "uint256",
          "name": "amount",
          "type": "uint256"
        }
      ],
      "name": "PaymentReleased",
      "type": "event"
    },
    {
      "inputs": [
        {
          "internalType": "uint256",
          "name": "index",
          "type": "uint256"
        }
      ],
      "name": "payee",
      "outputs": [
        {
          "internalType": "address",
          "name": "",
          "type": "address"
        }
      ],
      "stateMutability": "view",
      "type": "function"
    },
    {
      "inputs": [],
      "name": "payeeCount",
      "outputs": [
        {
          "internalType": "uint256",
          "name": "",
          "type": "uint256"
        }
      ],
      "stateMutability": "view",
      "type": "function"
    },
    {
      "inputs": [
        {
          "internalType": "address payable",
          "name": "account",
          "type": "address"
        }
      ],
      "name": "release",
      "outputs": [],
      "stateMutability": "nonpayable",
      "type": "function"
    },
    {
      "inputs": [
        {
          "internalType": "address",
          "name": "account",
          "type": "address"
        }
      ],
      "name": "released",
      "outputs": [
        {
          "internalType": "uint256",
          "name": "",
          "type": "uint256"
        }
      ],
      "stateMutability": "view",
      "type": "function"
    },
    {
      "inputs": [
        {
          "internalType": "address",
          "name": "account",
          "type": "address"
        }
      ],
      "name": "shares",
      "outputs": [
        {
          "internalType": "uint256",
          "name": "",
          "type": "uint256"
        }
      ],
      "stateMutability": "view",
      "type": "function"
    },
    {
      "inputs": [],
      "name": "totalReleased",
      "outputs": [
        {
          "internalType": "uint256",
          "name": "",
          "type": "uint256"
        }
      ],
      "stateMutability": "view",
      "type": "function"
    },
    {
      "inputs": [],
      "name": "totalShares",
      "outputs": [
        {
          "internalType": "uint256",
          "name": "",
          "type": "uint256"
        }
      ],
      "stateMutability": "view",
      "type": "function"
    },
    {
      "stateMutability": "payable",
      "type": "receive"
    }
  ],
  "bytecode": "0x60806040523480156200001157600080fd5b5060405162000b6738038062000b6783398101604081905262000034916200043c565b8051825114620000a65760405162461bcd60e51b815260206004820152603260248201527f5061796d656e7453706c69747465723a2070617965657320616e6420736861726044820152710cae640d8cadccee8d040dad2e6dac2e8c6d60731b60648201526084015b60405180910390fd5b6000825111620000f95760405162461bcd60e51b815260206004820152601a60248201527f5061796d656e7453706c69747465723a206e6f2070617965657300000000000060448201526064016200009d565b60005b82518110156200016557620001508382815181106200011f576200011f6200051a565b60200260200101518383815181106200013c576200013c6200051a565b60200260200101516200016e60201b60201c565b806200015c8162000546565b915050620000fc565b5050506200057e565b6001600160a01b038216620001db5760405162461bcd60e51b815260206004820152602c60248201527f5061796d656e7453706c69747465723a206163636f756e74206973207468652060448201526b7a65726f206164647265737360a01b60648201526084016200009d565b600081116200022d5760405162461bcd60e51b815260206004820152601d60248201527f5061796d656e7453706c69747465723a2073686172657320617265203000000060448201526064016200009d565b6001600160a01b03821660009081526002602052604090205415620002a95760405162461bcd60e51b815260206004820152602b60248201527f5061796d656e7453706c69747465723a206163636f756e7420616c726561647960448201526a206861732073686172657360a81b60648201526084016200009d565b60048054600181019091557f8a35acfbc15ff81a39ae7d344fd709f28e8600b4aa8c65c6b64bfe7fe36bd19b0180546001600160a01b0319166001600160a01b0384169081179091556000908152600260205260408120829055546200031190829062000562565b600055604080516001600160a01b0384168152602081018390527f40c340f65e17194d14ddddb073d3c9f888e3cb52b5aae0c6c7706b4fbc905fac910160405180910390a15050565b634e487b7160e01b600052604160045260246000fd5b604051601f8201601f191681016001600160401b03811182821017156200039b576200039b6200035a565b604052919050565b60006001600160401b03821115620003bf57620003bf6200035a565b5060051b60200190565b600082601f830112620003db57600080fd5b81516020620003f4620003ee83620003a3565b62000370565b82815260059290921b840181019181810190868411156200041457600080fd5b8286015b8481101562000431578051835291830191830162000418565b509695505050505050565b600080604083850312156200045057600080fd5b82516001600160401b03808211156200046857600080fd5b818501915085601f8301126200047d57600080fd5b8151602062000490620003ee83620003a3565b82815260059290921b84018101918181019089841115620004b057600080fd5b948201945b83861015620004e75785516001600160a01b0381168114620004d75760008081fd5b82529482019490820190620004b5565b918801519196509093505050808211156200050157600080fd5b506200051085828601620003c9565b9150509250929050565b634e487b7160e01b600052603260045260246000fd5b634e487b7160e01b600052601160045260246000fd5b6000600182016200055b576200055b62000530565b5060010190565b8082018082111562000578576200057862000530565b92915050565b6105d9806200058e6000396000f3fe6080604052600436106100735760003560e01c80638b83209b1161004e5780638b83209b146101125780639852595c1461014a578063ce7c2ac214610180578063e33b7de3146101b657600080fd5b8062dbe109146100b757806319165587146100db5780633a98ef39146100fd57600080fd5b366100b257604080513381523460208201527f6ef95f06320e7a25a04a175ca677b7052bdd97131872c2192525a629f51be770910160405180910390a1005b600080fd5b3480156100c357600080fd5b506004545b6040519081526020015b60405180910390f35b3480156100e757600080fd5b506100fb6100f63660046104d5565b6101cb565b005b34801561010957600080fd5b506000546100c8565b34801561011e57600080fd5b5061013261012d3660046104f9565b61044a565b6040516001600160a01b0390911681526020016100d2565b34801561015657600080fd5b506100c86101653660046104d5565b6001600160a01b031660009081526003602052604090205490565b34801561018c57600080fd5b506100c861019b3660046104d5565b6001600160a01b031660009081526002602052604090205490565b3480156101c257600080fd5b506001546100c8565b3068929eee149b4bd2126854036101ea5763ab143c066000526004601cfd5b3068929eee149b4bd21268556001600160a01b03811660009081526002602052604090205461026f5760405162461bcd60e51b815260206004820152602660248201527f5061796d656e7453706c69747465723a206163636f756e7420686173206e6f2060448201526573686172657360d01b60648201526084015b60405180910390fd5b60006001544761027f9190610528565b6001600160a01b038316600090815260036020526040812054919250906102a9908490849061047a565b90508060000361030f5760405162461bcd60e51b815260206004820152602b60248201527f5061796d656e7453706c69747465723a206163636f756e74206973206e6f742060448201526a191d59481c185e5b595b9d60aa1b6064820152608401610266565b6001600160a01b03831660009081526003602052604081208054839290610337908490610528565b9250508190555080600160008282546103509190610528565b90915550506040516000906001600160a01b0385169083908381818185875af1925050503d80600081146103a0576040519150601f19603f3d011682016040523d82523d6000602084013e6103a5565b606091505b50509050806103f65760405162461bcd60e51b815260206004820181905260248201527f5061796d656e7453706c69747465723a207472616e73666572206661696c65646044820152606401610266565b604080516001600160a01b0386168152602081018490527fdf20fd1e76bc69d672e4814fafb2c449bba3a5369d8359adf9e05e6fde87b056910160405180910390a15050503868929eee149b4bd212685550565b60006004828154811061045f5761045f610541565b6000918252602090912001546001600160a01b031692915050565b600080546001600160a01b0385168252600260205260408220548391906104a19086610557565b6104ab919061056e565b6104b59190610590565b949350505050565b6001600160a01b03811681146104d257600080fd5b50565b6000602082840312156104e757600080fd5b81356104f2816104bd565b9392505050565b60006020828403121561050b57600080fd5b5035919050565b634e487b7160e01b600052601160045260246000fd5b8082018082111561053b5761053b610512565b92915050565b634e487b7160e01b600052603260045260246000fd5b808202811582820484141761053b5761053b610512565b60008261058b57634e487b7160e01b600052601260045260246000fd5b500490565b8181038181111561053b5761053b61051256fea264697066735822122029b9aca0a19ebb8ac14e77e05e584bbce48e6bd4d984695b9e510e7abf565c4d64736f6c63430008140033",
  "linkReferences": {},
  "deployedLinkReferences": {}
}